:020000040800F2
:1000000000500020010200085100000871000008A3
:10001000B1000008F10000084101000831020008A9
:10002000810200086101000891010008D101000867
:10003000E1010008000000000000000000000000D6
:10004000080331002E003000000000000000000016
:10005000034B4FF4807208B11A6170475A617047C0
:100060000008014000000000000000000000000047
:10007000034B044A5A6002F188325A60704700BF4D
:10008000002002402301674500000000000000003E
:10009000044A0138D36801D0D907FAD403F0150017
:1000A000704700BF00200240000000000000000078
:1000B00070B504464FF480300E46FFF7E9FF72B684
:1000C00068B9094D4FF480302B6943F001032B616F
:1000D0002680FFF7DDFF2B6923F001032B6100234E
:1000E00083F3118862B670BD00200240000000005A
:1000F00038B505464FF08070FFF7CAFF72B688B971
:100100000B4C4FF08070236943F00203236165615B
:10011000236943F040032361FFF7BAFF236923F00B
:1001200002032361002383F3118862B638BD00BF48
:10013000002002400000000000000000000000005D
:10014000411803E01B780130FF2B04D1884203469D
:10015000F8D3012070470020704700000000000025
:100160000546074C074E05E02046FFF7C1FF20B9C2
:1001700004F58064B442F7D300E0FEE7A847FCE74B
:10018000001000084000000800000000000000000F
:100190000C4BDA6942F40002DA610B4AD2F814130C
:1001A00021F0FF0141F0B001C2F814134FF48011A7
:1001B000C2F8801111604FF400021A6100221A6126
:1001C000704700BF0010024000E100E000000000A6
:1001D000024BDA6922F40002DA6170470010024033
:1001E000044A054BD16801F070010B43D360BFF3A3
:1001F0004F8F704700ED00E00400FA05000000009A
:1002000072B64FF46D40CEF2000079464FF4805242
:100210001144A2F1010221EA0201816051F8040BAC
:1002200080F3088808680047000000000000000014
:100230000F4B70B59842154615D30E4B12189A42C3
:1002400013D804460E1A0AE033195978335D204654
:1002500043EA0121FFF72CFF28B90234023D002DAB
:10026000F2D1012070BD002070BD002070BD00BF24
:10027000001000084000000800000000000000001E
:1002800010B54FF08070FFF703FF72B6A8B9134C9A
:10029000134B4FF08070A36003F18833A360236990
:1002A00043F020032361236943F040032361FFF7F8
:1002B000EFFE236923F020032361002383F31188D9
:1002C00062B640B9074B1878A0F1FF0CDCF10000D2
:1002D00040EB0C0010BD002010BD00BF002002400C
:1002E0002301674500F8FF1F000000000000000028
:1002F00000000000000000000000000000000000FE
:1003000000000000000000000000000000000000ED
:1003100000000000000000000000000000000000DD
:1003200000000000000000000000000000000000CD
:1003300000000000000000000000000000000000BD
:1003400000000000000000000000000000000000AD
:10035000000000000000000000000000000000009D
:10036000000000000000000000000000000000008D
:10037000000000000000000000000000000000007D
:10038000000000000000000000000000000000006D
:10039000000000000000000000000000000000005D
:1003A000000000000000000000000000000000004D
:1003B000000000000000000000000000000000003D
:1003C000000000000000000000000000000000002D
:1003D000000000000000000000000000000000001D
:1003E000000000000000000000000000000000000D
:1003F00000000000000000000000000000000000FD
:10040000C66363A5F87C7C84EE777799F67B7B8D59
:10041000FFF2F20DD66B6BBDDE6F6FB191C5C554A7
:100420006030305002010103CE6767A9562B2B7D47
:10043000E7FEFE19B5D7D7624DABABE6EC76769A00
:100440008FCACA451F82829D89C9C940FA7D7D87AE
:10045000EFFAFA15B25959EB8E4747C9FBF0F00B8A
:1004600041ADADECB3D4D4675FA2A2FD45AFAFEA16
:10047000239C9CBF53A4A4F7E47272969BC0C05BFC
:1004800075B7B7C2E1FDFD1C3D9393AE4C26266ABD
:100490006C36365A7E3F3F41F5F7F70283CCCC4F9E
:1004A0006834345C51A5A5F4D1E5E534F9F1F108DF
:1004B000E2717193ABD8D873623131532A15153F6D
:1004C0000804040C95C7C752462323659DC3C35E29
:1004D00030181828379696A10A05050F2F9A9AB555
:1004E0000E070709241212361B80809BDFE2E23DD3
:1004F000CDEBEB264E2727697FB2B2CDEA75759F0B
:100500001209091B1D83839E582C2C74341A1A2E31
:10051000361B1B2DDC6E6EB2B45A5AEE5BA0A0FBEC
:10052000A45252F6763B3B4DB7D6D6617DB3B3CEDF
:100530005229297BDDE3E33E5E2F2F7113848497DC
:10054000A65353F5B9D1D16800000000C1EDED2CE0
:1005500040202060E3FCFC1F79B1B1C8B65B5BEDC5
:10056000D46A6ABE8DCBCB4667BEBED97239394BD1
:10057000944A4ADE984C4CD4B05858E885CFCF4ABC
:10058000BBD0D06BC5EFEF2A4FAAAAE5EDFBFB1657
:10059000864343C59A4D4DD76633335511858594AF
:1005A0008A4545CFE9F9F91004020206FE7F7F81F2
:1005B000A05050F0783C3C44259F9FBA4BA8A8E33C
:1005C000A25151F35DA3A3FE804040C0058F8F8AE6
:1005D0003F9292AD219D9DBC70383848F1F5F504ED
:1005E00063BCBCDF77B6B6C1AFDADA7542212163EE
:1005F00020101030E5FFFF1AFDF3F30EBFD2D26DCD
:1006000081CDCD4C180C0C1426131335C3ECEC2FF4
:10061000BE5F5FE1359797A2884444CC2E17173907
:1006200093C4C45755A7A7F2FC7E7E827A3D3D470E
:10063000C86464ACBA5D5DE73219192BE673739533
:10064000C06060A0198181989E4F4FD1A3DCDC7FF0
:1006500044222266542A2A7E3B9090AB0B888883E2
:100660008C4646CAC7EEEE296BB8B8D32814143CA2
:10067000A7DEDE79BC5E5EE2160B0B1DADDBDB7622
:10068000DBE0E03B64323256743A3A4E140A0A1EFA
:10069000924949DB0C06060A4824246CB85C5CE4E9
:1006A0009FC2C25DBDD3D36E43ACACEFC46262A641
:1006B000399191A8319595A4D3E4E437F279798BF7
:1006C000D5E7E7328BC8C8436E373759DA6D6DB757
:1006D000018D8D8CB1D5D5649C4E4ED249A9A9E02F
:1006E000D86C6CB4AC5656FAF3F4F407CFEAEA25AA
:1006F000CA6565AFF47A7A8E47AEAEE9100808187D
:100700006FBABAD5F07878884A25256F5C2E2E729C
:10071000381C1C2457A6A6F173B4B4C797C6C6519B
:10072000CBE8E823A1DDDD7CE874749C3E1F1F212B
:10073000964B4BDD61BDBDDC0D8B8B860F8A8A85A8
:10074000E07070907C3E3E4271B5B5C4CC6666AA3E
:10075000904848D806030305F7F6F6011C0E0E1262
:10076000C26161A36A35355FAE5757F969B9B9D02F
:100770001786869199C1C1583A1D1D27279E9EB99B
:10078000D9E1E138EBF8F8132B9898B32211113323
:10079000D26969BBA9D9D970078E8E89339494A781
:1007A0002D9B9BB63C1E1E2215878792C9E9E92026
:1007B00087CECE49AA5555FF50282878A5DFDF7A85
:1007C000038C8C8F59A1A1F8098989801A0D0D1706
:1007D00065BFBFDAD7E6E631844242C6D06868B862
:1007E000824141C3299999B05A2D2D771E0F0F11BF
:1007F0007BB0B0CBA85454FC6DBBBBD62C16163ABC
:10080000A5C6636384F87C7C99EE77778DF67B7B55
:100810000DFFF2F2BDD66B6BB1DE6F6F5491C5C5A3
:100820005060303003020101A9CE67677D562B2B43
:1008300019E7FEFE62B5D7D7E64DABAB9AEC7676FC
:10084000458FCACA9D1F82824089C9C987FA7D7DAA
:1008500015EFFAFAEBB25959C98E47470BFBF0F086
:10086000EC41ADAD67B3D4D4FD5FA2A2EA45AFAF12
:10087000BF239C9CF753A4A496E472725B9BC0C0F8
:10088000C275B7B71CE1FDFDAE3D93936A4C2626B9
:100890005A6C3636417E3F3F02F5F7F74F83CCCC9A
:1008A0005C683434F451A5A534D1E5E508F9F1F1DB
:1008B00093E2717173ABD8D8536231313F2A151569
:1008C0000C0804045295C7C7654623235E9DC3C325
:1008D00028301818A13796960F0A0505B52F9A9A51
:1008E000090E0707362412129B1B80803DDFE2E2CF
:1008F00026CDEBEB694E2727CD7FB2B29FEA757507
:100900001B1209099E1D838374582C2C2E341A1A2D
:100910002D361B1BB2DC6E6EEEB45A5AFB5BA0A0E8
:10092000F6A452524D763B3B61B7D6D6CE7DB3B3DB
:100930007B5229293EDDE3E3715E2F2F97138484D8
:10094000F5A6535368B9D1D1000000002CC1EDEDDC
:10095000604020201FE3FCFCC879B1B1EDB65B5BC1
:10096000BED46A6A468DCBCBD967BEBE4B723939CD
:10097000DE944A4AD4984C4CE8B058584A85CFCFB8
:100980006BBBD0D02AC5EFEFE54FAAAA16EDFBFB53
:10099000C5864343D79A4D4D5566333394118585AB
:1009A000CF8A454510E9F9F90604020281FE7F7FEE
:1009B000F0A0505044783C3CBA259F9FE34BA8A838
:1009C000F3A25151FE5DA3A3C08040408A058F8FE2
:1009D000AD3F9292BC219D9D4870383804F1F5F5E9
:1009E000DF63BCBCC177B6B675AFDADA63422121EA
:1009F000302010101AE5FFFF0EFDF3F36DBFD2D2C9
:100A00004C81CDCD14180C0C352613132FC3ECECF0
:100A1000E1BE5F5FA2359797CC884444392E171703
:100A20005793C4C4F255A7A782FC7E7E477A3D3D0A
:100A3000ACC86464E7BA5D5D2B32191995E673732F
:100A4000A0C0606098198181D19E4F4F7FA3DCDCEC
:100A5000664422227E542A2AAB3B9090830B8888DE
:100A6000CA8C464629C7EEEED36BB8B83C2814149E
:100A700079A7DEDEE2BC5E5E1D160B0B76ADDBDB1E
:100A80003BDBE0E0566432324E743A3A1E140A0AF6
:100A9000DB9249490A0C06066C482424E4B85C5CE5
:100AA0005D9FC2C26EBDD3D3EF43ACACA6C462623D
:100AB000A8399191A431959537D3E4E48BF27979F3
:100AC00032D5E7E7438BC8C8596E3737B7DA6D6D53
:100AD0008C018D8D64B1D5D5D29C4E4EE049A9A92B
:100AE000B4D86C6CFAAC565607F3F4F425CFEAEAA6
:100AF000AFCA65658EF47A7AE947AEAE1810080879
:100B0000D56FBABA88F078786F4A2525725C2E2E98
:100B100024381C1CF157A6A6C773B4B45197C6C697
:100B200023CBE8E87CA1DDDD9CE87474213E1F1F27
:100B3000DD964B4BDC61BDBD860D8B8B850F8A8AA4
:100B400090E07070427C3E3EC471B5B5AACC66663A
:100B5000D89048480506030301F7F6F6121C0E0E5E
:100B6000A3C261615F6A3535F9AE5757D069B9B92B
:100B7000911786865899C1C1273A1D1DB9279E9E97
:100B800038D9E1E113EBF8F8B32B9898332211111F
:100B9000BBD2696970A9D9D989078E8EA73394947D
:100BA000B62D9B9B223C1E1E9215878720C9E9E922
:100BB0004987CECEFFAA5555785028287AA5DFDF81
:100BC0008F038C8CF859A1A180098989171A0D0D02
:100BD000DA65BFBF31D7E6E6C6844242B8D068685E
:100BE000C3824141B0299999775A2D2D111E0F0FBB
:100BF000CB7BB0B0FCA85454D66DBBBB3A2C1616B8
:100C000063A5C6637C84F87C7799EE777B8DF67B51
:100C1000F20DFFF26BBDD66B6FB1DE6FC55491C59F
:100C2000305060300103020167A9CE672B7D562B3F
:100C3000FE19E7FED762B5D7ABE64DAB769AEC76F8
:100C4000CA458FCA829D1F82C94089C97D87FA7DA6
:100C5000FA15EFFA59EBB25947C98E47F00BFBF082
:100C6000ADEC41ADD467B3D4A2FD5FA2AFEA45AF0E
:100C70009CBF239CA4F753A47296E472C05B9BC0F4
:100C8000B7C275B7FD1CE1FD93AE3D93266A4C26B5
:100C9000365A6C363F417E3FF702F5F7CC4F83CC96
:100CA000345C6834A5F451A5E534D1E5F108F9F1D7
:100CB0007193E271D873ABD831536231153F2A1565
:100CC000040C0804C75295C723654623C35E9DC321
:100CD0001828301896A13796050F0A059AB52F9A4D
:100CE00007090E0712362412809B1B80E23DDFE2CB
:100CF000EB26CDEB27694E27B2CD7FB2759FEA7503
:100D0000091B1209839E1D832C74582C1A2E341A29
:100D10001B2D361B6EB2DC6E5AEEB45AA0FB5BA0E4
:100D200052F6A4523B4D763BD661B7D6B3CE7DB3D7
:100D3000297B5229E33EDDE32F715E2F84971384D4
:100D400053F5A653D168B9D100000000ED2CC1EDD8
:100D500020604020FC1FE3FCB1C879B15BEDB65BBD
:100D60006ABED46ACB468DCBBED967BE394B7239C9
:100D70004ADE944A4CD4984C58E8B058CF4A85CFB4
:100D8000D06BBBD0EF2AC5EFAAE54FAAFB16EDFB4F
:100D900043C586434DD79A4D3355663385941185A7
:100DA00045CF8A45F910E9F9020604027F81FE7FEA
:100DB00050F0A0503C44783C9FBA259FA8E34BA834
:100DC00051F3A251A3FE5DA340C080408F8A058FDE
:100DD00092AD3F929DBC219D38487038F504F1F5E5
:100DE000BCDF63BCB6C177B6DA75AFDA21634221E6
:100DF00010302010FF1AE5FFF30EFDF3D26DBFD2C5
:100E0000CD4C81CD0C14180C13352613EC2FC3ECEC
:100E10005FE1BE5F97A2359744CC884417392E17FF
:100E2000C45793C4A7F255A77E82FC7E3D477A3D06
:100E300064ACC8645DE7BA5D192B32197395E6732B
:100E400060A0C060819819814FD19E4FDC7FA3DCE8
:100E5000226644222A7E542A90AB3B9088830B88DA
:100E600046CA8C46EE29C7EEB8D36BB8143C28149A
:100E7000DE79A7DE5EE2BC5E0B1D160BDB76ADDB1A
:100E8000E03BDBE0325664323A4E743A0A1E140AF2
:100E900049DB9249060A0C06246C48245CE4B85CE1
:100EA000C25D9FC2D36EBDD3ACEF43AC62A6C46239
:100EB00091A8399195A43195E437D3E4798BF279EF
:100EC000E732D5E7C8438BC837596E376DB7DA6D4F
:100ED0008D8C018DD564B1D54ED29C4EA9E049A927
:100EE0006CB4D86C56FAAC56F407F3F4EA25CFEAA2
:100EF00065AFCA657A8EF47AAEE947AE0818100875
:100F0000BAD56FBA7888F078256F4A252E725C2E94
:100F10001C24381CA6F157A6B4C773B4C65197C693
:100F2000E823CBE8DD7CA1DD749CE8741F213E1F23
:100F30004BDD964BBDDC61BD8B860D8B8A850F8AA0
:100F40007090E0703E427C3EB5C471B566AACC6636
:100F500048D8904803050603F601F7F60E121C0E5A
:100F600061A3C261355F6A3557F9AE57B9D069B927
:100F700086911786C15899C11D273A1D9EB9279E93
:100F8000E138D9E1F813EBF898B32B98113322111B
:100F900069BBD269D970A9D98E89078E94A7339479
:100FA0009BB62D9B1E223C1E87921587E920C9E91E
:100FB000CE4987CE55FFAA5528785028DF7AA5DF7D
:100FC0008C8F038CA1F859A1898009890D171A0DFE
:100FD000BFDA65BFE631D7E642C6844268B8D0685A
:100FE00041C3824199B029992D775A2D0F111E0FB7
:100FF000B0CB7BB054FCA854BBD66DBB163A2C16B4
:1010000000040020E1130008A1140008A114000846
:10101000A1140008A1140008A1140008A1140008DC
:10102000A1140008A1140008A1140008D11400089C
:10103000A1140008A1140008A1140008A1150008BB
:10104000A1140008A1140008A1140008A1140008AC
:10105000A1140008A1140008A1140008A11400089C
:10106000A1140008A1140008A11400089120000890
:10107000C1200008F12000082121000851210008AA
:1010800081210008B1210008A1140008A114000862
:10109000B16E0008A1140008A1140008A1140008F2
:1010A000A1140008A1140008A1140008A11400084C
:1010B000A1140008A1140008A1140008A11400083C
:1010C000A1140008A1140008A1140008A11400082C
:1010D000A1140008A1140008A1140008A11400081C
:1010E000A1140008A1140008A1140008FFFFFFFFCD
:1010F0002DE9FF41A04BA14CDB689847237EFF2BD5
:1011000023D1637EFF2B20D1A37EFF2B1DD1E37E55
:10111000FF2B1AD19A4D9B4F183415F8016F2046BA
:101120003309092B94BF30213721C91806F00F0667
:1011300008F0BEFD092E94BF30213721A01C89196B
:1011400008F0B6FD0434BD42E7D100F091FF05F090
:1011500057FC00F0B5FA8C4B8C4CDA698C4B1A605A
:101160008C4B1B68D87905F0DBF808F0A9FE2368E2
:101170001BB9FA2000F094FCF9E7002486484FF4EC
:1011800090714022854B009400F062FC844D2F4604
:10119000844B1B681BB11B78062B00F0DC804FF0E2
:1011A000FF3041F2883100F06BFEDFF8FC8103462E
:1011B0000134042B1BD005D8012B0BD0022B40F09F
:1011C000C18009E0102B5AD0202B66D0082B40F0AC
:1011D000B9804DE0642007E03220014604F050FE63
:1011E00003460028E4D1322041F28831ACE06107A7
:1011F000CED16C4B1B680BB11E780EB96420A2E0F7
:101200002B7813F0040F0CBF192064204B2104F03D
:1012100037FE03460028CBD13B7813F0020F0CBFFA
:10122000192064204B2104F02BFE03460028BFD177
:101230002B7813F0010F0CBF192064204B2104F010
:101240001FFE03460028B3D1012E4FF0FF3004D11A
:101250004FF4C87100F014FE78E04B2100F010FE4E
:1012600003460028A4D1032E14BF192064206AE08D
:10127000012004F0FDFD4C4B01221A7088E7C821C3
:101280004FF0FF3000F0FCFD03460020039388F888
:10129000000004F0EDFD039B59E0444C012004F0F4
:1012A000E7FD192000F0FCFB002004F0E1FD4B20DD
:1012B00000F0F6FB012004F0DBFD192000F0F0FB4C
:1012C000002004F0D5FD4B2000F0EAFB012004F0E3
:1012D000CFFD192000F0E4FB002004F0C9FDC82078
:1012E00000F0DEFB012004F0C3FD2378DA0701D50E
:1012F000642000E0192000F0D3FB002004F0B8FDCA
:101300004B2000F0CDFB012004F0B2FD23789B07B9
:1013100001D5642000E0192000F0C2FB002004F099
:10132000A7FD4B2000F0BCFB012004F0A1FDC8206C
:1013300000F0B6FB002004F09BFD40F2EE2000F030
:10134000AFFBABE71920C82104F09AFD0346002B40
:101350007FF42EAF1CE7012004F08AFD05F008F8A9
:10136000134B00221A6072B6124AC3F8F82C024BD3
:1013700050685B6A9847FEE70000000810C3000849
:10138000E7F7FF1FEBF7FF1FFC06002068090020AE
:101390001808002030C400082008002081760008CA
:1013A000C5130020700900201C0800201D08002023
:1013B00010E000E0001C0020000000000000000021
:1013C0007047000000000000000000000000000066
:1013D000FEE7000000000000000000000000000028
:1013E00072B6224B83F30988022383F31488BFF378
:1013F0006F8F1F4B1F494FF0553201E043F8042B0C
:101400008B42FBD31C4B19494FF0553201E043F896
:10141000042B8B42FBD301F00BF8184A184B1949E7
:1014200003E052F8040B43F8040B8B42F9D3164B3C
:101430001649002201E043F8042B8B42FBD3FFF74F
:10144000BFFF134C134D02E054F8043B9847AC42E5
:10145000FAD3FFF74DFE104C104D02E054F8043B58
:101460009847AC42FAD3FFF7B3FF00BF0006002055
:10147000000000200004002000040020B8C800087C
:10148000000600200006002000060020481A002068
:10149000F0100008F0100008F0100008F01000082C
:1014A000FEE7000000000000000000000000000057
:1014B00072B6FEE70000000000000000000000001F
:1014C00000F05EFA00DF00000000000000000000F5
:1014D000EFF30983203383F30988002383F3118812
:1014E0007047000000000000000000000000000045
:1014F00008B50A4B4FF480529A60094A0720DA6017
:10150000102100F0B5F80A204FF4007100F0B0F897
:101510000B208021BDE8084000F0AAB800ED00E0F3
:101520000000FA05000000000000000000000000BC
:10153000202383F31188164B5B6813F4006324D0D7
:10154000EFF30982A2F1200383F309884FF080733F
:1015500042F8043C0F4B996941B11968DB6989680D
:101560009B68994294BF0023012307E01968DB6957
:1015700089689B68994234BF002301230BB1064B55
:1015800000E0064B42F8083C704783F3118870472F
:1015900000ED00E0FC060020C1140008C41400089F
:1015A00008B5202383F3118800F0C2F8002383F3E9
:1015B0001188BDE80840FFF7BBBF00000000000035
:1015C0002DE9F04FC1F80CD0D0F80CD0BDE8F08F69
:1015D000002383F311882846A04700F091FA704752
:1015E00070B500F00304E400FF2505FA04F501FAE4
:1015F00004F40B4B8208C03253F82260012126EA22
:1016000005052C4343F82240420900F01F0001FA6F
:1016100000F002F1600143F8210043F8220070BDA0
:1016200000E100E0000000000000000000000000F9
:1016300000F01F03012101FA03F14209094B203296
:1016400010B543F82210820800F00300C000FF2408
:1016500004FA00F0C03253F8221021EA000043F8E7
:10166000220010BD00E100E00000000000000000CA
:10167000820800F0030030B5C000FF2404FA00F433
:1016800001FA00F0044B063253F8225025EA040414
:10169000204343F8220030BD00ED00E000000000D0
:1016A000024B034ADB699A61FEE700BFFC0600209B
:1016B000C0A70008000000000000000000000000BB
:1016C00007B5FFF715FF00F0A3F800F061F800F090
:1016D000FFFB00F03DFC40210C4800F089F90C496B
:1016E0000C4BC8610122C36180F82020002383F3E2
:1016F000118862B6CB6908490848996100230093B4
:10170000B021074B00F0A4F90EBD00BF0006002079
:10171000FC06002000040020E0A700083806002096
:10172000A1160008000000000000000000000000FA
:101730000E4B10B59A69002A01DD013A9A610C4CF2
:10174000E3680133E3602368A3420ED09A68013A4C
:101750009A6006E0D368D160116810694C6021601E
:101760009847226891680029F4D010BDFC0600203B
:10177000EC06002000000000000000000000000057
:10178000014B1860FFF794BEE8060020000000003F
:10179000044B4FF0FF329A6000225B601B60DA60FE
:1017A000704700BFEC0600200000000000000000B1
:1017B0000361C260094B00E0891A1B689A688A427B
:1017C000FAD35A68036042601060044A586093423A
:1017D000816002D09A68511A99607047EC06002027
:1017E0000368074A934203D0996882688A189A600E
:1017F0004268136003685A600023C360704700BFEB
:10180000EC060020000000000000000000000000C6
:10181000044B00229A6014225B601B609A615B613A
:101820001B617047FC060020000000000000000063
:10183000002380F820308268054B1B68996891422C
:10184000FBD25A680360426010605860704700BF66
:10185000FC06002000000000000000000000000066
:1018600090F82030032B03D0052B05D073B108E08E
:10187000436A9A6801329A6090E80C001A60026824
:1018800053604FF0FF334362FFF7D2BF7047000051
:1018900038B50E4D1423AB612B68EC691A6884F8D7
:1018A000200055602A60012283F82020E269EB6164
:1018B000ADF124039A4202D90548FFF761FFE869B8
:1018C0002146BDE83840FFF77BBE00BFFC06002084
:1018D000D0A7000800000000000000000000000089
:1018E00010B54B1C86B004460ED00B4B01A8DB692B
:1018F0000A4AFFF75DFF2046FFF7CAFF049B2BB1A2
:1019000001A8FFF76DFF01E0FFF7C2FF024BDB69A3
:10191000586A06B010BD00BFFC0600206118000820
:1019200070B5124D04464162E869A26883689A4224
:1019300004D82046BDE87040FFF77ABFFFF778FF74
:101940001423AB61C269012384F82030ADF1240374
:101950009A420646EC6102D90548FFF711FF20467E
:101960003146BDE87040FFF72BBE00BFFC060020EB
:10197000D0A70008000000000000000000000000E8
:1019800038B50E4C1423A3612368E5691A6828460C
:1019900054602260012283F82020E361FFF748FFB2
:1019A000EA69ADF124039A4202D90548FFF7E8FE3F
:1019B000E0692946BDE83840FFF702BEFC0600207A
:1019C000D0A7000800000000000000000000000098
:1019D000044B1A68DB6992689B689A4201D9FFF749
:1019E000CFBF7047FC060020000000000000000090
:1019F000022380F82030002380F821300363C36283
:101A00008361094B012280F822205A6903618160B9
:101A10004261586100F12803836200F13803416399
:101A20001061C361704700BFFC0600200000000089
:101A3000243910B54418C4604350029B11466360BA
:101A4000024B2362BDE81040FFF7D2BFD11500085A
:101A500013B51C46202383F31188049B009323466F
:101A6000FFF7E6FF00210446FFF75AFF002383F348
:101A7000118820461CBD000000000000000000008E
:101A8000202383F3118890F8213043F0040380F879
:101A90002130002383F3118870470000000000000C
:101AA00008B50146202383F311880620FFF718FFAD
:101AB000002383F3118808BD00000000000000002F
:101AC00038B50D4BDC69606204F1280503E003685A
:101AD000A362FFF7ADFEA06AA842F8D194F82130C6
:101AE0009B0704D1636922691A61226953610E2040
:101AF000BDE83840FFF7CCBEFC0600200000000027
:101B0000202383F31188FFF7DBBF000000000000F3
:101B100038B50446202383F3118890F820300E2B2B
:101B200007D0084B826ADB691A6083620720FFF7DF
:101B3000AFFE656A002383F31188204600F008F8A1
:101B4000284638BDFC060020000000000000000010
:101B5000202383F3118890F822200023013AD2B287
:101B600080F8222083F3118882B990F820300E2B60
:101B70000CD190F8213003F00303012B06D1436907
:101B800002691A610269536100F032BA70470000BD
:101B900010B50B461B688B4203D09C688268944248
:101BA000F8D25A68036042601060586010BD0000AF
:101BB0000023406000608360704700000000000068
:101BC00070B5214B84680646DD69002C28D135E0CC
:101BD000A36094F82030042B03D0052B0DD0B3B1B3
:101BE00022E094E80C001A60226820465360616A83
:101BF000FFF7CEFF636A9C6812E094E80C001A605D
:101C0000226820465360616AFFF7C2FF0CE094E847
:101C10000C001A60226820465360FFF709FE03E0BB
:101C2000AB68A2689A42D3D328463146FFF7B0FF8B
:101C300004206E62BDE87040FFF72ABE2B6B856002
:101C4000C360286370BD00BFFC06002000000000D8
:101C500008B5202383F31188FFF7B2FF002383F335
:101C6000118808BD00000000000000000000000016
:101C700038B5144BDA69202383F31188146B20687C
:101C8000E168A042116316D0536B07E00D688D42E6
:101C900003D0AD68AB4238BF2B46C9680029F5D1E7
:101CA0009360036823605C60036BA060E36004637F
:101CB000FFF736FE01E00023A360002383F31188C1
:101CC000204638BDFC060020000000000000000097
:101CD00038B5114BDA69146B2068E368A0421363CE
:101CE00016D0516B07E01D689D4203D0AD68A94234
:101CF00038BF2946DB68002BF5D10368916023606B
:101D00005C60036BA060E3600463FFF791FD01E09A
:101D10000023A360204638BDFC0600200000000020
:101D200010B50B461B688B4203D09C6882689442B6
:101D3000F8D25A68036042601060586010BD00001D
:101D400040600060704700000000000000000000DC
:101D500008B50246202383F311880068904205D01D
:101D60000368002113605A60FFF7DAFD002383F354
:101D7000118808BD00000000000000000000000005
:101D80000A4B70B5DC690646FFF7A2FF31460546EF
:101D900066622046FFF7C4FF0520FFF779FD646AFD
:101DA0002846FFF70DFF204670BD00BFFC0600204F
:101DB00008B5202383F31188FFF7E2FF002383F3A4
:101DC000118808BD000000000000000000000000B5
:101DD000202383F31188054BDB69DA6A22EA0001CC
:101DE000D962002383F3118810407047FC0600205D
:101DF00008B5C36A194390F82030C162082B03D19B
:101E0000436A194206D108BD092B07D1436A19401C
:101E1000994203D1FFF70CFD0023436208BD000087
:101E200008B5202383F31188FFF7E2FFFFF7D0FD09
:101E3000002383F3118808BD0000000000000000AB
:101E400038B50C4B0546DC69202383F31188E06A22
:101E5000284005D108206562FFF71AFDE06A284096
:101E600043421840E36A23EA0003E362002383F35A
:101E7000118838BDFC0600200000000000000000B2
:101E80000F4B70B5DD690646202383F31188EC6A99
:101E900004400AD129B168620820FFF721FD00281B
:101EA00001DA234608E0EC6A344063421C40EB6AE6
:101EB00023EA0403EB62002383F31188204670BDFC
:101EC000FC060020000000000000000000000000F0
:101ED000054A064B22F007021A60054A054B22F01C
:101EE00007021A60704700BF4F1A00202007002029
:101EF000005000201C07002000000000000000002F
:101F0000064B0749C21D0968186822F00702091A22
:101F1000914226BF82181A600020704720070020D7
:101F20001C0700200000000000000000000000006E
:101F300008B5202383F31188FFF7E2FF002383F322
:101F4000118808BD00000000000000000000000033
:101F50000448054B036000238360C3601030FFF723
:101F600027BE00BF28070020311F00080000000026
:101F7000F8B51C4B0446002808BF1C46CE1D04F1D2
:101F8000100026F0070604F10807FFF761FE18E0CD
:101F90006B68B34214D306F108029342286801D259
:101FA000386008E0A918A8506FF00702921BD318F8
:101FB0004B6039606E6045F8084BFFF759FE0FE043
:101FC0002F463D68002DE3D1FFF752FE25683DB155
:101FD00006F10800A847054610B180E85000083512
:101FE0002846F8BD2807002000000000000000007F
:101FF00070B50446A0F1080550F8080C00F1080679
:102000001030FFF725FE3346B34201D09D4226D95A
:102010001A680AB1954222D254F8041C44F8082CDC
:102020001D6001F1080254F8086CA818B04207D1ED
:102030004068AA580918083144F8041C44F8082CD0
:102040005A6802F1080159188D420AD154F8041C4B
:10205000521808325A6054F8082C1A6001E01B68C4
:10206000D2E7BDE87040FFF703BE000000000000AB
:1020700008B500F02DF9034800F0A2F9BDE80840CA
:1020800000F0DEB960A800080000000000000000B9
:1020900008B5074B0F2219685A60064A13681BB12E
:1020A00001F00F0150689847BDE80840FFF740BABB
:1020B000000002404807002000000000000000006F
:1020C00008B5074BF02219685A60064A93681BB19D
:1020D000C1F30311D0689847BDE80840FFF728BA5C
:1020E000000002404807002000000000000000003F
:1020F00008B5084B4FF4706219685A60064A1369B4
:102100001BB1C1F3032150699847BDE80840FFF7B0
:102110000FBA00BF00000240480700200000000086
:1021200008B5084B4FF4704219685A60064A936923
:102130001BB1C1F30331D0699847BDE80840FFF7F0
:10214000F7B900BF0000024048070020000000006F
:1021500008B5084B4FF4702219685A60064A136A92
:102160001BB1C1F30341506A9847BDE80840FFF72F
:10217000DFB900BF00000240480700200000000057
:1021800008B5084B4FF4700219685A60064A936A02
:102190001BB1C1F30351D06A9847BDE80840FFF76F
:1021A000C7B900BF0000024048070020000000003F
:1021B00008B5084B4FF0706219685A60064A136BF5
:1021C0001BB1C1F30361506B9847BDE80840FFF7AE
:1021D000AFB900BF00000240480700200000000027
:1021E000094A002330B50948094C136019461A46BC
:1021F00015590C32296019500833542AF8D1054B6F
:102200004FF0FF325A6030BD8007002048070020A1
:1022100000A80008000002400000000000000000CC
:10222000F8B5457A012404FA05FC154E37681CEA16
:10223000070F21D1134C44F8352004EBC5056B6022
:102240004CEA070333605B0604D00F4B5C6944F033
:1022500001045C6103680F261C6824F001041C6003
:10226000057A446806FA05F5256000241C602AB149
:10227000807A0901FFF7B4F92046F8BD1046F8BD91
:1022800080070020480700200010024000000000E6
:1022900010B50446807AFFF7CBF9637A012202FA7F
:1022A00003F3064A116821EA030313605A0604D1B6
:1022B000034B5A6922F001025A6110BD80070020C9
:1022C00000100240000000000000000000000000BC
:1022D000154B00211A694FF0FF321A611961D86855
:1022E000DA601248124AD96050609160072111608B
:1022F000D2F8EC1D41F08071C2F8EC1D0D4A116856
:1023000041F001011160DA6942F08052DA61DA6964
:1023100042F00062DA61A3F5D0331A6842F48072A9
:102320001A60FFF75DBF00BF001002403F190100B7
:1023300010E000E0001000E00000000000000000DD
:102340001B4B1A6842F001021A601A461168184BBA
:102350008907FBD51A6802F0F9021A6000225A6058
:102360005A6812F00C0F124AFAD1136843F4803302
:10237000136011680E4B8803FBD55A6842F4E812CB
:102380005A601A6842F080721A601968084A890116
:10239000FBD5084B12215360074B1960536843F07B
:1023A00002035360536803F00C03082BFAD1704703
:1023B0000010024000841D000020024000000000C8
:1023C000194B9A6942F07D029A610268A3F5843341
:1023D000DA6082685A6042681A60C268C3F80C24E6
:1023E0004269C3F804240269C3F800248269C3F86F
:1023F0000C28026AC3F80428C269C3F80028426A9C
:10240000C3F80C2CC26AC3F8042C826AC3F8002CEF
:10241000026B03F58063C3F80C2C826BC3F8042CA9
:10242000426BC3F8002C704700100240000000000F
:10243000FFF786BF00000000000000000000000061
:10244000024B5A6842F400625A6070470000014033
:1024500000232DE9F04114461D4615E0D4F800C0D4
:10246000C3EB0C06266051F8047BBE422CBF4FF034
:1024700000084FF00108F61B9C452CBF434608F1AD
:10248000010344F8046B01358542E7DB20EAE07084
:1024900002EB800007E00268D11A9A4240F8041B60
:1024A0002CBF00230123002BF5D1BDE8F0810000F3
:1024B0002DE9F74F0024019410F47E6F00F03F8166
:1024C000A0F12000E0C992E80007A3FB05BC1BEBCC
:1024D000040B4CF1000418EB0B08A3FB06BC5BEBF0
:1024E000040B4CF1000419EB0B09A3FB07BC5BEBDD
:1024F000040B4CF100041AEB0B0AA2E80007E0C938
:1025000092E80007A3FB05BC5BEB040B4CF1000455
:1025100018EB0B08A3FB06BC5BEB040B4CF10004AF
:1025200019EB0B09A3FB07BC5BEB040B4CF100049C
:102530001AEB0B0AA2E80007E0C992E80007A3FB28
:1025400005BC5BEB040B4CF1000418EB0B08A3FB80
:1025500006BC5BEB040B4CF1000419EB0B09A3FB6D
:1025600007BC5BEB040B4CF100041AEB0B0AA2E86E
:102570000007E0C992E80007A3FB05BC5BEB040B76
:102580004CF1000418EB0B08A3FB06BC5BEB040B3F
:102590004CF1000419EB0B09A3FB07BC5BEB040B2C
:1025A0004CF100041AEB0B0AA2E80007E0C992E81C
:1025B0000007A3FB05BC5BEB040B4CF1000418EB1C
:1025C0000B08A3FB06BC5BEB040B4CF1000419EBFE
:1025D0000B09A3FB07BC5BEB040B4CF100041AEBEB
:1025E0000B0AA2E80007E0C992E80007A3FB05BCBC
:1025F0005BEB040B4CF1000418EB0B08A3FB06BCCF
:102600005BEB040B4CF1000419EB0B09A3FB07BCBB
:102610005BEB040B4CF100041AEB0B0AA2E8000779
:10262000E0C992E80007A3FB05BC5BEB040B4CF18F
:10263000000418EB0B08A3FB06BC5BEB040B4CF18E
:10264000000419EB0B09A3FB07BC5BEB040B4CF17B
:1026500000041AEB0B0AA2E80007E0C992E80007A1
:10266000A3FB05BC5BEB040B4CF1000418EB0B085F
:10267000A3FB06BC5BEB040B4CF1000419EB0B094C
:10268000A3FB07BC5BEB040B4CF100041AEB0B0A39
:10269000A2E80007E0C992E80007A3FB05BC5BEBDA
:1026A000040B4CF1000418EB0B08A3FB06BC5BEB1E
:1026B000040B4CF1000419EB0B09A3FB07BC5BEB0B
:1026C000040B4CF100041AEB0B0AA2E80007E0C966
:1026D00092E80007A3FB05BC5BEB040B4CF1000484
:1026E00018EB0B08A3FB06BC5BEB040B4CF10004DE
:1026F00019EB0B09A3FB07BC5BEB040B4CF10004CB
:102700001AEB0B0AA2E8000760C992E80003A3FBDA
:1027100005BC5BEB040B4CF1000418EB0B08A3FBAE
:1027200006BC5BEB040B4CF1000419EB0B09A2E8AF
:10273000000344F1000410F47E6F7FF4C1AE0194F5
:1027400013E0DDF804C001380031156851F8044B7E
:10275000A3FB046756EB0C0647F1000CAD1942F8D9
:10276000045B4CF1000CCDF804C00028E9DC0199B1
:1027700013685B188B422CBF0021012142F8043BF7
:1027800001910029F3D1BDE8FE8F00000000000098
:102790000FB482B002AA52F8043B01210192002238
:1027A00006E083E806009A60019B181D01901B68F3
:1027B000002BF6D102B004B070470000000000000A
:1027C0000FB473B506AB53F8044B002501930126F3
:1027D00010E0A06838B162680021920007F028FF7D
:1027E000A068FFF705FC019B26601A1DA5600192F9
:1027F00065601C68002CECD1BDE87C4004B07047DB
:10280000F8B5436804468B420E4620DA8F0000205C
:102810003946FFF7ADFB0546B8B100213A4607F04F
:1028200007FFA16869B162682846920007F060FE60
:102830006268A0689200002107F0FAFEA068FFF726
:10284000D7FB6660A5600020F8BD0120F8BD002020
:10285000F8BD0000000000000000000000000000C3
:102860008842F8B504460D461FD04F68013FBB00B3
:1028700004E0AA68D258043B12B9013F002FF8DCEB
:102880002B680137236020463946FFF7B9FF06461B
:1028900060B9626831469200A06807F0C9FEA0687E
:1028A000BA00A96807F024FE00E000263046F8BD13
:1028B0007FB506460C240D462246314601A807F096
:1028C00017FE29462246304607F012FE284601A987
:1028D000224607F00DFE7FBD000000000000000052
:1028E00070B50E4601210446FFF78AFF054688B9F8
:1028F0006268A0689200294607F09AFEA36886EAFB
:10290000E672A2EBE672002EACBF01264FF0FF3656
:102910001A602660284670BD00000000000000001C
:10292000002370B51A46446809E025FA01F616F04E
:10293000010F0CD1013101332029F6D10132A2421D
:1029400004DA816851F822500021EEE7002318468E
:1029500070BD00000000000000000000000000004A
:102960004368013B9A0009E081688958043A21B123
:1029700082681F2052F8232003E0013B002BF3DC88
:10298000F6E722FA00F1C90702D410F1FF30F8D2BD
:1029900000EB431001307047000000000000000011
:1029A00008B5FFF7DDFF0730C01008BD00000000CC
:1029B0002DE9F04104460D461746002602E0AB5DC6
:1029C00013B90136BE42FADBB91B0423033191FB74
:1029D000F3F12046FFF714FF0146D0B92046FFF778
:1029E0007FFF0146A8B9034610E015F8078003F001
:1029F000030C4FEACC0C08FA0CFCA268981052F8B1
:102A00002080013348EA0C0C42F820C0013FB74255
:102A1000EBDA0846BDE8F08100000000000000008D
:102A2000F8B5144607460D46FFF7BAFF844206463E
:102A300018DB22462846002107F0FAFD2C19002356
:102A40000BE0B968981003F0030251F82010D2008F
:102A500021FA02F2013304F8012DF21A002AF0DC07
:102A60000020F8BD0820F8BD0000000000000000B4
:102A70002DE9F04104460D46FFF772FF63684019E7
:102A8000B0EB431F08DD1F30202390FBF3F12046FD
:102A9000FFF7B6FE002834D1202295FBF2F2002A7F
:102AA00017DD61686FF003064B1E5643890004E092
:102AB000A0687718C759013B475004399342F7DAA9
:102AC0009900002003E0A668013B70500439002BF8
:102AD000F9DA15F01F0014D0D4F804C093000021D7
:102AE000C0F120070AE0A6680132F55805FA00F89F
:102AF00048EA0101F15025FA07F104336245F2DB9F
:102B00000020BDE8F081000000000000000000008F
:102B1000202291FBF2F2002AF0B501F01F011BDD2B
:102B200046680023B51A1C46920008E0876802EB4D
:102B3000030C57F80CC0013447F803C00433AC420F
:102B4000F4DB25EAE5739A00002403E0856801338D
:102B5000AC500432B342F9DB89B1426800249300DF
:102B6000C1F1200708E08668F55825FA01FC4CEA17
:102B70000404F45005FA07F4043B013AF3D50020AD
:102B8000F0BD000000000000000000000000000098
:102B9000436830B5013B9A0004E08468A458043AC5
:102BA00014B9013B002BF8DA4A68013A940004E0BA
:102BB0008D682D59043C15B9013A002AF8DA002B2A
:102BC00005DA002AACBF4FF0FF30002030BD934241
:102BD00014DC9A420FDC9A0009E08468A5588C68DE
:102BE000A458A5420AD8A2F1040209D3013B002B44
:102BF000F3DA002030BD4FF0FF3030BD012030BD92
:102C00004FF0FF3030BD0000000000000000000069
:102C10002DE9F04F87B0109E934672680190894667
:102C2000B06892000021049307F002FDDBF8044035
:102C3000D9F80430D6F808C09C42B8BF23460293A6
:102C4000631C9B0005960393E2460025264620E080
:102C5000D9F8081050F825800C683B68049A04FBEA
:102C60000834544302983A464346CDF800C0FFF773
:102C70001FFC3A4623463046DBF80810FFF718FCE5
:102C8000039A4AF8048B0023DDF800C04AF80230AA
:102C90000135019BB54257469868D9DB3446621C22
:102CA00024EAE47192000CEB8101059E07F020FC00
:102CB00001985946FFF76CFF0028204604DB019B72
:102CC000DBF808109A6802E0019A9168B26807B0D0
:102CD000BDE8F04FFFF7BCBB0000000000000000A3
:102CE00042680346013A70B5900004E09C6824589D
:102CF000043814B9013A002AF8DA48680138840027
:102D000004E08D682D59043C15B901380028F8DA23
:102D1000002A02DA002806DA22E0824201DD186881
:102D200070BD904201DD086815E018680C68002845
:102D300001DD002C16DB002C01DC94000EE00028E5
:102D4000FBDA11E09D682E598D682D59AE420DD8E1
:102D5000A4F1040401D2404270BD013A002AF1DA24
:102D6000002070BD012070BD4FF0FF3070BD00002D
:102D70001FB581EAE173A3EBE17303930029ACBFB4
:102D800001214FF0FF31012300910193694603AB0C
:102D90000293FFF7A5FF05B000BD00000000000092
:102DA00090422DE9F0410446154606D0884205D0F0
:102DB000FFF756FD064608B151E00D46012323609A
:102DC0006B6803F1FF384FEA880305E0AA68D25820
:102DD000043B22B908F1FF38B8F1000FF6DA08F128
:102DE00001012046FFF70CFD0646002837D1A968EF
:102DF000A3680746054613E053F8042CBA1843F8B5
:102E0000042C0868101843F8040C51F804CB6045F2
:102E10002CBF00200120BA422CBF0746471C0135B9
:102E20001A4604334545E7DD4FEA850813E0636839
:102E30009D4206DB691C2046FFF7E2FC70B9A268E0
:102E40004244136808F10408FB18BB422CBF00275A
:102E5000012713600135002FE9D100E00646304616
:102E6000BDE8F0810000000000000000000000004C
:102E7000F0B5044685B008460D4611461746FFF7E3
:102E800087FE00282CDB002101A8FFF781FCBC4253
:102E900006D101A82146FFF7E3FC0646D8B901AFE9
:102EA000AC4205D020462946FFF7DAFC064690B929
:102EB0007868012301382360830004E0BA68D2589F
:102EC000043B12B901380028F8DA0130B968A26869
:102ED000FFF7BEFA002601A80021FFF771FC00E011
:102EE0000A26304605B0F0BD0000000000000000DA
:102EF000F8B50E681368044673430D46174614D59B
:102F000008461146FFF744FE0028204605DB294607
:102F10003A46FFF7ADFF60B905E039462A46FFF7AC
:102F2000A7FF30B976422660F8BDFFF739FF00B938
:102F30002660F8BD00000000000000000000000056
:102F4000F8B50E68136804467343002B0D46174608
:102F500014DD08461146FFF71BFE0028204605DB5E
:102F600029463A46FFF784FF60B905E039462A460C
:102F7000FFF77EFF30B976422660F8BDFFF710FFFD
:102F800000B92660F8BD000000000000000000004D
:102F90001FB582EAE273A3EBE2730393002AACBF8E
:102FA00001224FF0FF320123009201936A4603ABE6
:102FB0000293FFF79DFF05B000BD00000000000078
:102FC0001FB582EAE273A3EBE2730393002AACBF5E
:102FD00001224FF0FF320123009201936A4603ABB6
:102FE0000293FFF7ADFF05B000BD00000000000038
:102FF0002DE9F04786B00646884617466846002207
:1030000003A9FFF7C5FB464507D168463146FFF7E0
:1030100027FC044600284DD1E846BE4207D103A84C
:103020003146FFF71DFC0446002843D103AFD8F812
:10303000043003F1FF3A4FEA8A0306E0D8F808208B
:10304000D258043B22B90AF1FF3ABAF1000FF5DA7F
:103050007D68013DAB0004E0BA68D258043B12B968
:10306000013D002DF8DA0AEB050102313046FFF789
:10307000C7FB0446F0B921463046FFF731FC044651
:10308000C0B90AF1010A4FEA85090CE0B268BB68D1
:103090004A4453F809305046D8F80810FFF708FAA8
:1030A000013DA9F10409002DF0DAD8F800303A68A2
:1030B0005343336003A869460022FFF781FB204693
:1030C00006B0BDE8F087000000000000000000002E
:1030D0001FB5012300930193039203AB6A46029349
:1030E000FFF786FF05B000BD0000000000000000F3
:1030F0002DE9F04F83469DB00D4618460021164637
:103100000893FFF735FE002800F0C68100240DA8C3
:1031100010A913AA16AB19AF00970194FFF738FB5B
:1031200030460899FFF734FDA04216DABBF1000FD4
:1031300007D021465846FFF7D3FB0446002840F04D
:103140009E81002D00F0A68128463146FFF788FBBE
:103150000446002840F093819FE10DA83146FFF717
:103160007FFB0446002840F08A8110A80899FFF7E9
:1031700077FB0446002840F0828171680123023108
:1031800013A810930D93FFF73BFB0446002840F073
:103190007681214613A8FFF7A3FB0446002840F0E0
:1031A0006E8116A80221FFF72BFB0446002840F091
:1031B000668138460321FFF723FB0446002840F0D0
:1031C0005E8110A8FFF7CCFBAB4B0340002B03DA6A
:1031D000013B63F01F0301331F2B11D0C3F11F0309
:1031E0000DA819460793FFF743FC002840F04681DD
:1031F00010A80799FFF73CFC002840F03F8101E050
:10320000002307930E9B0DF14009059303F1FF384E
:10321000119B484603F1FF3ACAEB08074FEA471CE7
:1032200061460493CDF818C0BF00FFF721FC08E009
:10323000159B0DA8DA5901460132DA514A46FFF7CB
:103240007FFE0DA84946FFF74BFD0028F0DA4846FF
:103250000699FFF75DFC4FEA8A03DDF810C006937C
:103260000AF1FF339B000A93CCEB08035B01049344
:10327000059BCCEB0807A3F10209BF004FEA8909BF
:103280000B94D0E00F99129BDDF818C009F10404EB
:103290000A5953F80C309A4204D3159B4FF0FF3271
:1032A000DA513CE01FFA83FECDF814E04FEA134EEA
:1032B000B2FBFEF00EFB102C51F809100A0C42EA8A
:1032C0000C42DDF814C003910CFB00F18A420CD2D1
:1032D0000138D218DDF80CC001E00138D2189A424A
:1032E00001D38A42F9D3CDF80CC0521AB2FBFEF1D9
:1032F0000EFB1122DDF80CE01FFA8EFC4CEA0242B4
:10330000DDF814C00CFB01FE03E0D21801399A422B
:1033100001D37245F9D3159B41EA0041D951159B60
:10332000DA590132DA51A9F104030593159B16A865
:10333000DA590021013ADA51FFF7D2FA002840F0B9
:103340009D80BAF1000F129AC8BFDDF828C0189B03
:10335000C8BF52F80C00DDF818C0186052F80C20F5
:1033600016A85A60159B0146DA59FFF7B1FE0146CF
:1033700000287ED119A8FFF7B3FA00287ED1B8F152
:10338000010F1B9B04DD0F9ADDF814C052F80C00EE
:103390000F9A1860B8F1000FCCBF52F80910002145
:1033A0005960125916A89A6019A9FFF799FC0028CC
:1033B000BCDC159B16A810A9DA59FFF789FE002876
:1033C0005CD116A80499FFF753FB002856D10DA82D
:1033D000014616AAFFF7B4FD0146002849D10DA801
:1033E000FFF7C6FC002816DA16A810A9FFF738FA6E
:1033F000002843D116A80499FFF73AFB00283DD1D5
:103400000DA8014616AAFFF773FD002836D1159BBB
:10341000DA59013ADA51049B08F1FF38203B043FA6
:103420000493A9F10409D0453FF72CAF0B9CBBF1E5
:10343000000F0BD0584613A9FFF712FADDF820C091
:103440003368DCF800205343CBF80030BDB1079956
:103450000DA8FFF75DFB0DA92846FFF701FA3368B9
:1034600028462B600021FFF783FC40B901232B6025
:1034700005E00C4603E000BF1F000080044619ABC6
:103480000093002301930DA810A913AA16ABFFF710
:1034900097F902E02C4600E00C2420461DB0BDE860
:1034A000F08F00BF000000000000000000000000DE
:1034B00070B504460E46104600211546FFF758FC2D
:1034C000002824DB3246002021462B46FFF710FE61
:1034D0000646E8B905E0204621462A46FFF708FDE2
:1034E00098B900212046FFF743FC0028F3DB05E0F4
:1034F000204621462A46FFF723FD30B920462946BB
:10350000FFF7EEFB0028F3DA02E0064600E00A26A9
:10351000304670BD00000000000000000000000008
:10352000002AF0B52CD02DDB012A03D10023036043
:103530001846F0BD022A04D18B681B6803F0010312
:103540001BE04C680023A5000FE08E687659370C0D
:1035500047EA0343B3FBF2F702FB1733B6B246EA7E
:103560000343B3FBF2F602FB1633043D013CECD5FA
:103570000968002901DA03B1D31A03600020F0BD05
:103580000C20F0BD0A20F0BD00000000000000008B
:103590002DE9F04F0746ADF5517D884618460021CC
:1035A00004921D46FFF7E4FB0028DDF868B3C0F283
:1035B000B981AB68D3F8009019F0010F00F0B28127
:1035C0000022C6A8C9A9FFF7E3F800214FF4407212
:1035D00006A807F02DF80498FFF7C2F9B0F5287F88
:1035E00008DAEF2808DC4F2808DC1728D4BF0126AA
:1035F000032604E0062602E0052600E004266B68A8
:10360000384603F1010A5146FFF7FAF8044600284C
:1036100040F0698109A85146FFF7F2F804460028F6
:1036200040F061814FEA4A01C9A8FFF7E9F8044672
:10363000002840F05881C6A8BBF1000F02D0DBF88B
:103640000830F3B90121FFF74BF90446002840F098
:103650004A816968C6A88901FFF70AFA044600286A
:1036600040F04181C6A801462A46FFF721FF0446E3
:10367000002840F03881BBF1000F06D05846C6A99B
:1036800000E059460C2206F033FF29464046FFF77A
:1036900027FB0028414609A803DB2A46FFF708FF5D
:1036A00001E0FFF7DDF809F1020101F0040109EB87
:1036B000410109FB01F2C2F102024A4309FB02F394
:1036C000C3F10203534309FB03F8A8F1020808FB06
:1036D00003F8C9AA0592009209A8C6A92A4643463A
:1036E000FFF796FA3846C6A9FFF7BAF8044600284D
:1036F00040F0F980CFABCE93C9AB4FF001090093F6
:103700003846CCA92A464346CDF83C93CDF83093B1
:10371000CDF83493FFF77CFA4E4555D0721E09FA66
:1037200002F9CDF80C90039B02924FF00C0906AA07
:1037300009FB0329696848460131FFF761F8002851
:1037400040F0D080484609A9FFF78AF8002840F0E9
:10375000C980A246C9AB00932A464846494643461B
:10376000FFF756FA029A0AF1010A9245F2DB039B2F
:1037700003F10109012303FA06F3029321E00C226D
:1037800006AB02FB093A696850460131FFF738F889
:10379000002840F0A78009F1FF310C2206AB02FBA4
:1037A00001315046FFF75CF8002840F09B80C9AA21
:1037B0000092504609A92A464346FFF729FA09F123
:1037C0000109029B9945DADB049A4FF0000952681F
:1037D00005940392CA46CDF808904C46029B8BB9DB
:1037E000039A22B1013A2023039202930AE00123B3
:1037F00003FA06F3A446059CDDF80C9002930394AB
:1038000064465DE0029A013A0292049A9368039A30
:1038100053F82230029A23FA02F313F001030ED177
:10382000B9F1000FDAD0B9F1010F08D1C9AB00939B
:10383000384639462A464346FFF7EAF9CEE70AF109
:10384000010ACAEB060203FA02F9B24549EA040981
:1038500003D04C464FF00209C0E70024C9AA0092E9
:10386000384639462A4643460134FFF7D1F9B44277
:10387000F4DB06ABC9AA0C2101FB093100923846E2
:103880002A4643464FF0000AFFF7C2F94FF00109FC
:103890005446A3E7C9AB00932A4638463946434607
:1038A000FFF7B6F9029A6400144207D0C9AB00933F
:1038B000384609A92A464346FFF7AAF909F1010942
:1038C000D145E7DB0123C9AACF93CC93CD93CFABEE
:1038D000CE9300923846CCA92A464346039CFFF774
:1038E00097F900E00446751E012303FA05F503FA73
:1038F00006F60C2706E006AB07FB05300021FEF7B5
:103900005FFF0135B542F6DB09A8C9A9BBF1000F7D
:1039100003D00022FEF754FF05E0C6AA5B46FEF77F
:103920004FFF00E0042420460DF5517DBDE8F08FE7
:103930002DE9F0418AB004AE07AD0C4600233146B4
:103940008046174601A82A46FEF722FF2146304648
:10395000FEF786FF0446002864D128463946FEF764
:103960007FFF044600285DD13046FEF7D9FF0446AC
:103970002846FEF7D5FFA042B4BF07462746394682
:103980003046FFF7C5F8044600284BD12846394693
:10399000FFF7BEF80446002844D10123079304939F
:1039A0002FE03046FEF7BCFF01463046FFF7B0F887
:1039B0000446002836D12846FEF7B2FF01462846C5
:1039C000FFF7A6F8044600282CD130462946FFF719
:1039D00087F9002808DB304631462A46FFF748FAC7
:1039E0000446F8B9304607E0284629463246FFF734
:1039F0003FFA0446B0B928460121FFF789F804468A
:103A000080B930460021FFF7B3F90028C9D107A8D3
:103A10003946FFF72DF8044620B9404607A9FEF7BE
:103A20001FFF044607A804A901AA0023FEF7C8FE49
:103A300020460AB0BDE8F081000000000000000050
:103A40002DE9F04F8346A3B00F46104600211546DE
:103A5000FFF78EF9002840F33D811FAB049300234C
:103A600007AE05930AA80DA910AA13AB0DF15808CB
:103A70000DF164090DF1700A0096CDF80480CDF8BF
:103A80000890CDF80CA0FEF783FE304639462A4652
:103A9000FFF74EFF0446002840F00981304601211F
:103AA000FFF766F9002840F001810AA839462A4646
:103AB000FFF7FEFC0446002840F0F9800DA80AA993
:103AC000FEF7CEFE0446002840F0F180404629462D
:103AD000FEF7C6FE0446002840F0E9804846294625
:103AE000FEF7BEFE0446002840F0E18010A8012148
:103AF000FEF7F6FE0446002840F0D980214613A8C0
:103B0000FEF7EEFE0446002840F0D18021465046E4
:103B1000FEF7E6FE0446002840F0C9801FA80121F8
:103B2000FEF7DEFE2DE00DA80121FEF7F1FF0446B1
:103B3000002840F0BC80129B1B68D80703D4159B5B
:103B40001B68D90711D510A8014616AAFFF7D0F9AE
:103B50000446002840F0AB8013A801460AAAFFF7EC
:103B6000EFF90446002840F0A28010A80121FEF7DA
:103B7000CFFF0446002840F09A8013A80121FEF7E9
:103B8000C7FF0446002840F092800F9B1B68DA07AD
:103B90002ED4C8E719A80121FEF7BAFF0446002871
:103BA00040F085801E9B1B68DB0703D4219B1B68AC
:103BB000DC070FD51CA8014616AAFFF799F90446A1
:103BC000002874D11FA801460AAAFFF7B9F90446D4
:103BD00000286CD11CA80121FEF79AFF044600289A
:103BE00065D11FA80121FEF793FF044600285ED18E
:103BF0001B9B1B68D807CDD50DA819A9FFF770F836
:103C0000002813DB0DA8014619AAFFF799F904460D
:103C100000284CD110A801461CAAFFF791F90446D0
:103C2000002844D113A801461FAA12E019A8014692
:103C30000DAAFFF785F90446002838D11CA80146D3
:103C400010AAFFF77DF90446002830D11FA80146CD
:103C500013AAFFF775F90446002828D10DA8002102
:103C6000FFF786F8002890D106E01CA801462A46F6
:103C7000FFF73EF90446D0B900211CA8FFF778F8F9
:103C80000028F2DB06E01CA801462A46FFF758F997
:103C9000044660B91CA82946FFF722F80028F2DA8A
:103CA00058461CA9FEF7DCFD044600E00E2407ABD5
:103CB000009313AB019310AB02930DAB03930AABCC
:103CC0000493002305931FA81CA919AA16ABFEF79D
:103CD00077FD00E00424204623B0BDE8F08F00000B
:103CE0002DE9F04F95B00391002105469346FFF76B
:103CF0003FF8002800F0F78028460121FFF738F848
:103D0000002800F0F08028460221FFF731F8002853
:103D100000F0EB8010AB00930023019304A80DABDF
:103D200007A90AAAFEF734FD2B68029301232B6032
:103D3000AB681B68DC0740F1D6806E4E13E0284666
:103D40002146FFF715F8002840F3CB80224613A840
:103D50002946FFF7E5FB0446002840F0B580139B99
:103D6000002B00F0C08056F8044F002CE7DC04A8BC
:103D700029460122FFF724F90446002840F0A480D8
:103D800004A8FEF7CDFD04A9824607A8FEF768FD4A
:103D90000446002840F0988007A85146FEF7B8FE78
:103DA0000446002840F090802846FEF7D9FD40F2F6
:103DB0001353984211DCA3F5E17398420FDC40F2F3
:103DC000892398420DDCB0F5AF7F0CDAF9280CDCC2
:103DD0009528D4BF1B26122608E0022606E00326FB
:103DE00004E0042602E0082600E00C264FF000085C
:103DF0000DA86968FEF704FD0446002864D10F9FF2
:103E000004E05846039B9847385501340E9BB4EBA9
:103E1000830FF6DB0DA8FEF7A3FD04AF044638467A
:103E2000FEF79EFD241A611C0DA8FEF771FE0446E4
:103E3000002849D10F9B0DA81A68014642F00302E1
:103E40001A6010AB009307AA2B46FFF7A1FB0446AC
:103E5000002839D10DA83946FEF742FF60B30DA8FE
:103E60000121FEF785FF38B34FF0010912E00DA9DB
:103E70000AA80A46FFF7BCF818BB0DA80AA92A46EB
:103E8000FFF716FBE8B90DA80121FEF771FF48B155
:103E900009F10109D14505DA0DA83946FEF720FFE1
:103EA0000028E4D10DA804A9FEF71AFF58B90DA8FF
:103EB0000121FEF75DFF30B108F10108B04597DB45
:103EC00002E0044600E00E24029B10A82B6004AB25
:103ED0000093002301930DA90AAA07ABFEF770FC1B
:103EE00004E0002402E00E2400E00446204615B061
:103EF000BDE8F08F9CA80008000000000000000052
:103F00002DE9F047022986B004460D4690461E462C
:103F10000E9F40F3838003A80021FEF739FC05F1D2
:103F20001F0149112046FEF76BFC034600286ED1A5
:103F300019462046FEF7D4FC0346002867D1D4F882
:103F400008A0814605E03846B0470AF8090009F1A3
:103F500001096368B9EB830FF5DB2046FEF700FD2E
:103F6000A84204DA291A2046FEF782FD04E006DDA5
:103F7000411B2046FEF7CCFD0346002847D1A3682D
:103F80001A6842F003021A60B8F1000F0AD012E07A
:103F90000E2B3CD1204621460222FEF7F9FF0346B4
:103FA000002834D1204631463A46FFF799FE0346B1
:103FB0000028EDD12BE003AD284621460122FEF773
:103FC000FFFF21E028460121FEF7A2FD0346F0B9DC
:103FD000204631463A46FFF783FE034630B928466D
:103FE00031463A46FFF77CFE034680B10E2B0ED1D8
:103FF000284621460122FEF7CBFF034638B920466A
:1040000021460222FEF7C4FF03460028DAD003A8A7
:1040100000210193FEF7D4FB019B00E00423184626
:1040200006B0BDE8F08700000000000000000000BE
:1040300070B504460E4615460021942206F0F8FAA3
:10404000C4F88C60C4F8905070BD000000000000FF
:104050002DE9F04186B006460C4603A8002115461E
:10406000FEF796FB03A821467268FEF7A1FC804686
:10407000F8B906F1080703A83946FEF731FE002813
:1040800005DB03A84146FEF79BFB11481DE003A892
:10409000746806F11402014668363B460096FFF745
:1040A00077FA804628B903A829462246FEF7B8FCCD
:1040B000804603A80021FEF783FBB8F1000F03D070
:1040C000044848EA000000E0404606B0BDE8F08140
:1040D00000FCFFFFC0FBFFFF00000000000000002D
:1040E0002DE9F0418CB00C46054606A903A8002333
:1040F000904609AAFEF74CFB214603A86A68FEF722
:1041000057FC0446002847D105F1740305F12C073C
:10411000009305F1440206A803A93B46FFF738FACD
:104120000446002838D105F1800305F138060093D4
:1041300005F1500209A803A93346FFF729FA0446FE
:10414000002829D103A806A909AAFEF7F9FE04460A
:1041500010BB05F15C0206A803A9FEF749FF04465F
:10416000D0B903A806A93A46FFF7A2F9044698B9C0
:1041700006A803A93246FEF73BFF044660B903A830
:1041800009A906AAFEF7B4FE044628B903A84146C9
:104190006A68FEF745FC044603A806A909AA00239D
:1041A000FEF70EFB14B10348204300E020460CB09C
:1041B000BDE8F081B0FBFFFF000000000000000040
:1041C000F0B50446676808461946A7F11003F02BBE
:1041D000C1B015462CD820B920466A46FFF738FFF3
:1041E00003E020466A46FFF77BFF064628BBD4F86B
:1041F0008C30FBB99DF800306A46DBB99DF8013080
:10420000022B17D1781E931C684401E0814211D221
:1042100019460C780133002CF8D1D21A1946479B65
:10422000BA189A4208DC2A60469806F061F904E060
:10423000034E02E0034E00E0034E304641B0F0BDB5
:1042400000FCFFFFF0FBFFFF90FBFFFF0000000002
:104250002DE9F74F9B46D0F88C30044601919446E7
:104260000C9FDDF834804668002B40F0D5800E2A84
:1042700000F2D480DFE812F00F00D2001300130028
:1042800013001500D200D200D200D200D2001900D3
:104290001B001D001700033ECBEB06060AE0253E7F
:1042A00008E0263E06E0323E04E0363E02E0463EAE
:1042B00000E0563E072E40F3B18008F102094FF0AE
:1042C000000A012388F800A088F801304846FF2141
:1042D0003246CDF800C006F0ABF909F806A0DDF8CB
:1042E00000C009EB0605681CBCF10E0F00F29680B9
:1042F000DFE80CF008940B17243094949494944DB8
:104300005F713B0039465A462CE04649122206F0BE
:10431000EFF805F113003946102206F0E9F8022300
:104320000AE04049122206F0E3F805F1130039468D
:10433000102206F0DDF80423AB735EE03949122247
:1043400006F0D6F805F113003946102206F0D0F831
:104350000523F1E734490F2206F0CAF805F11000F1
:104360003946142206F0C4F847E03049132206F01B
:10437000BFF805F1140039461C2206F0B9F8AB78F5
:104380001C33AB700423EB73EB7C1C3334E0274904
:10439000132206F0ADF805F114003946202206F08C
:1043A000A7F8AB782033AB700123EB73EB7C2033A1
:1043B00022E01E49132206F09BF805F1140039464D
:1043C000302206F095F8AB783033AB700223EB73F4
:1043D000EB7C303310E01549132206F089F805F123
:1043E00014003946402206F083F8AB784033AB70B6
:1043F0000323EB73EB7C4033EB74019B2046414677
:10440000424623B903B0BDE8F04FFFF721BE03B029
:10441000BDE8F04FFFF764BE054800E0054803B073
:10442000BDE8F08F70A7000883A7000893A70008D5
:10443000F0FBFFFF00FCFFFF000000000000000099
:104440002DE9F04705466E689A46A6F11003C0B004
:10445000F02B08461446DDF82081499900F29C8033
:1044600020B928466A46FFF7F3FD03E028466A466E
:10447000FFF736FE002840F09480D5F88C30002BF2
:1044800040F08E809DF800206B46002A40F0888026
:104490009DF80120012A40F08380711E9F1C6A460E
:1044A000694403E08D427BD2FF2B79D13D4617F85A
:1044B000013B002BF6D1D21BB618222E1DD195F848
:1044C0000E903846AB733849122205F0E1FF002800
:1044D00064D1B9F1020F01D1022C08E0B9F1040F47
:1044E00001D1032C03E0B9F1050F47D1042C45D1CC
:1044F00005F113004146102246E0232E0DD1052C74
:104500003CD1384629490F2205F0C2FF002845D189
:1045100005F110004146142236E02F2E04D1EB7B2A
:10452000042B2BD10E2C13E0332E04D1EB7B012B6B
:1045300024D10B2C0CE0432E04D1EB7B022B1DD19C
:104540000C2C05E0532E19D1EB7B032B16D10D2C2F
:1045500014D1AB78EC7C113B1122DBB2AA700022A3
:104560009C42EA731AD138461149122205F090FF95
:10457000A0B905F114004146224605E056450FD189
:1045800074B938464146324605F082FF094B00288F
:1045900014BF1846002004E0074802E0054800E088
:1045A000064840B0BDE8F08770A7000883A7000860
:1045B00093A70008A0FBFFFF00FCFFFFF0FBFFFF3D
:1045C00030B500F1500589B0009500F14405019522
:1045D00000F13805029500F12C05039500F1200546
:1045E00000F1800400F1740100F1680200F15C0345
:1045F000049500F11405083006900020079020462D
:104600000595FEF7DDF809B030BD000000000000A0
:104610002DE9F04F93B00546884605929A461C9CBA
:10462000002900F08E807F2B40F38B80022C40F31A
:104630008880002306AE09AF0DF1300900933046A3
:1046400039464A460FABFEF7A3F805F1140321469D
:1046500018460393FEF744F90446002862D10AF194
:1046600001035B10CB460493C146059B05F12C0763
:1046700000933846049900224B46FFF741FC04465C
:1046800000284FD1059B05F138060093224630469D
:1046900004994B46FFF734FC0446002842D13846C3
:1046A0003146FEF71DFB002803DA38463146FEF797
:1046B000FFF838463146FEF713FB20B305F1080832
:1046C000404639463246FEF793FC50BB4046FEF763
:1046D00047F9504517D106A839460122FEF770FC6C
:1046E000F8B909A831460122FEF76AFCC8B9584654
:1046F00006A909AAFEF77CFC98B90FA803995A46A7
:10470000FFF716F968B90FA80121FEF731FB002861
:10471000ABD105F10800FEF723F90730C01068603F
:1047200000E00446002300930FA80CA909AA06ABD9
:10473000FEF746F83CB12846FFF742FF0448204305
:1047400002E0044800E0204613B0BDE8F08F00BF4F
:10475000E0FBFFFF00FCFFFF000000000000000086
:10476000C02AF0B507D0B2F5807F06D0802A40F08D
:10477000BE800A2302E00C2300E00E23036000F158
:104780000803436052110546002410E001EB840643
:10479000B77896F801C03F0447EA0C2711F824C007
:1047A000F67847EA0C0747EA06666E60013404357E
:1047B0009442EBDB02680C2A2AD00E2A54D0002047
:1047C0000A2A40F096804B4D4B49DA6846591C68DE
:1047D00004307440C2F307268E5D7440160E8E5D61
:1047E00084EA0644D6B28E5D84EA0664C2F30746C4
:1047F0008E5D84EA06245E681C6174409E685C617C
:10480000744062409C61DA6110332828DDD16CE08D
:10481000384D394900205A6946591C6804307440A3
:10482000C2F307268E5D7440160E8E5D84EA064440
:10483000D6B28E5D84EA0664C2F307468E5D84EAD2
:1048400006245E689C6174409E68DC617440DE688A
:104850001C6274401E695C62744062409C62DA6251
:1048600018332028D7D140E0224D234A0024D969AB
:104870006659186804347040C1F30726965D70408D
:104880000E0E965D80EA0640CEB2965D80EA066026
:10489000C1F30746965D80EA06205E6818627040A4
:1048A0009E6858627040DE6898627040C6B2975D3C
:1048B0001E69D8627E40070ED75D86EA0766C0F3A0
:1048C0000727D75DC0F30740105C86EA072686EA13
:1048D00000405E69186370409E69586370404140B3
:1048E0009863D96320331C2CC1D10020F0BD03484C
:1048F000F0BDF0BD40BC000840AB000800F8FFFF71
:104900002DE9F047C02AC6B0044606D0B2F5807F34
:1049100005D0802A5FD10A2302E00C2300E00E2399
:10492000236004F1080363606846FFF719FF05463A
:10493000002851D1009B01991B01CA18CB58266849
:10494000A3605368013EE3609368DFF8A0802361B1
:10495000D36823486361103A04F11803DFF890C06C
:10496000DFF890E01F4F25E0002154584FEA14690A
:1049700010F809A05FFA84F910F8099058F82AA0F5
:104980005CF829908AEA0909C4F3072A10F80AA0FA
:10499000C4F30744045D5EF82AA057F8244089EA6E
:1049A0000A0989EA04045C5004311029DDD110336E
:1049B000013E103A002ED7DC116868461960516834
:1049C000596091689960D2680021DA604FF48C7266
:1049D00005F02EFE00E0044D284646B0BDE8F08705
:1049E00040AB000840B4000800F8FFFF40B80008E2
:1049F00040AC000840B000080000000000000000CB
:104A00002DE9F74F977854783F0447EA0427147844
:104A1000D0F804C02743D478957947EA0467DCF8D6
:104A200000402D0467405479567A45EA04251479EC
:104A300092F80D802543D479006845EA0465DCF8D6
:104A4000044040106540947A0090240444EA06240F
:104A5000167A3443D67A44EA0664DCF80860744077
:104A6000967B360446EA082692F80C80D27B46EA0A
:104A7000080646EA0266DCF80C2056400CF11002EB
:104A8000002940F07F81DFF82093DFF820C3C14880
:104A9000C1490193AFE059F82A305CF82B805FFAE6
:104AA00085FA83EA0808136859F82AB088EA0308E7
:104AB000C6F3072350F823305FFA84FA88EA030824
:104AC000C4F3074351F8233059F82AA088EA0308B1
:104AD000230E5CF82330C4F307248BEA030B5368DE
:104AE0008BEA030BC7F3072350F823308BEA030B41
:104AF000C6F3074351F823308BEA030B330E5CF8FF
:104B00002330F6B28AEA030A936859F826608AEAE3
:104B1000030AC5F3072350F82330C5F307458AEA93
:104B2000030AC7F307433F0E5CF8277051F82330A0
:104B30007740D6688AEA03037E4050F8247051F823
:104B400025407E4066405FFA88F54FEA1B6459F8BD
:104B500025705CF824405FFA8BF56740146959F8BA
:104B600025506740C6F3072450F824405FFA83FAC3
:104B70006740C3F3074451F8244059F82AA067401E
:104B80001C0E5CF82440C3F307236540546950F8B9
:104B900023306540C8F3072450F824406540C6F32D
:104BA000074451F824406540340E5CF82440F6B2C6
:104BB0008AEA040A946959F826608AEA040ACBF35F
:104BC000072450F82440CBF3074B8AEA040AC8F3C1
:104BD00007444FEA18685CF8288051F8244086EAB8
:104BE0000808D6698AEA040488EA06065E4051F895
:104BF0002B3020325E40009BDFF8AC81013B002B64
:104C000000935FFA87FA4FEA156B3FF744AFDFF87E
:104C10009C9158F82A0059F82B10DFF878C180EAE7
:104C2000010911685FFA85FA89EA0109C6F30721CB
:104C30005CF82100C4F3074189EA0009564858F896
:104C40002AB050F82110DFF864A189EA01014FEA87
:104C500014695AF82990019B8BEA090BD2F8049049
:104C600001918BEA090BC7F307295CF829904FEAF9
:104C7000166A8BEA090BC6F3074950F82990F6B279
:104C80008BEA090B5FFA84F958F82910DFF81C91B8
:104C900058F8266059F82AA0D2F8089081EA0A0A42
:104CA0008AEA090AC5F307295CF82990C4F30724A6
:104CB0008AEA090AC7F3074950F829903F0E8AEAA1
:104CC0000909DFF8E8A05CF824405AF82770C5F31A
:104CD00007457740D66850F825007740DDF804C0D6
:104CE000674047402D485FFA8CF4065D14690199CE
:104CF00066404FEA1B64045D86EA0466C7F3072436
:104D0000045D86EA0426C9F30744045D86EA044686
:104D10005FFA8BF4055D546965404FEA1964045DE0
:104D200085EA0465CCF30724045D85EA0425C7F30E
:104D30000744045D85EA04455FFA89F410F804C06D
:104D40009469D2698CEA04044FEA176C10F80CC01D
:104D5000FFB284EA0C64CBF3072C10F80CC0C75DDB
:104D600084EA0C24C1F3074C090E415C10F80CC016
:104D70007A40C9F3072982EA016284EA0C4410F8F8
:104D8000091093E1DFF82890DFF828C004480549AE
:104D90000193C4E040B0000840B4000870C00008AF
:104DA00000080008000C000840AC000840B80008EB
:104DB0000004000870BC000859F82A305CF82B8009
:104DC0005FFA85FA83EA0808136859F82AB088EA76
:104DD0000308C5F3072350F823305FFA84FA88EA02
:104DE0000308C4F3074351F8233059F82AA088EA8E
:104DF00003034FEA17685CF828808BEA080BD2F8A7
:104E000004808BEA080BC4F3072850F82880240E8E
:104E10008BEA080BC6F3074851F828805CF8244059
:104E20008BEA080B4FEA15685CF82880C5F3074544
:104E30008AEA0808D2F808A088EA0A08C6F3072A0E
:104E4000F6B259F8266050F82AA06640D46888EA7D
:104E50000A08C7F3074AC7F30727744050F82760CA
:104E600051F82AA0664051F82540DDB26640340E64
:104E700059F825705CF8244088EA0A0867401469EC
:104E80005FFA8BF56740CBF3072450F8244059F8BC
:104E900025506740C8F3074451F824405FFA88FA68
:104EA00067401C0E5CF8244059F82AA065405469FC
:104EB0006540C8F3072450F824404FEA186865405D
:104EC000C6F3074451F824405CF8288065404FEA57
:104ED0001B645CF82440CBF3074B8AEA040A94690C
:104EE0008AEA040AC6F30724F6B250F8244059F8B7
:104EF00026608AEA040A86EA0808C3F30744D669EA
:104F0000C3F3072350F8233088EA06065E4051F8C1
:104F1000244051F82B308AEA04045E402032009B82
:104F20005FFA87FA013B002B00934FEA166BDFF81C
:104F3000D4813FF741AFDFF8D09158F82A0059F8F3
:104F40002B10DFF8C8C180EA010911685FFA85FA01
:104F500089EA0109C5F307215CF82100C4F3074180
:104F600089EA0009654858F82AB050F82110DFF89E
:104F700098A189EA01014FEA17695AF82990019B23
:104F80008BEA090BD2F8049001918BEA090BC4F368
:104F900007295CF829904FEA156A8BEA090BC6F3DA
:104FA000074950F82990C5F307458BEA090B5FFACA
:104FB00084F958F82910DFF85091240E59F82AA0E6
:104FC000D2F8089081EA0A0A8AEA090AC6F3072990
:104FD0005CF82990F6B28AEA090AC7F3074950F843
:104FE000299058F826608AEA0909DFF81CA1C7F35E
:104FF00007275AF8244050F825006640D4680199E4
:1050000066405CF82740DDF804C086EA04074740A4
:105010003B485FFA8CF4065D146966403C0E045D03
:1050200086EA0466CBF30724045D86EA0426C9F306
:105030000744045D86EA04465FFA8BF4055D546913
:1050400065404FEA1C64045D85EA0465C9F30724E2
:10505000045D85EA0425C7F30744045D85EA044539
:105060005FFA89F410F804C09469D2698CEA0404E8
:105070004FEA1B6C10F80CC04FEA196984EA0C6403
:10508000C7F3072C10F80CC0FFB2C75D84EA0C24EC
:10509000C1F3074C7A4010F80CC010F80970C1F346
:1050A0000721415C84EA0C4482EA0762CBF3074B98
:1050B00082EA012210F80B101E7082EA0142310AC6
:1050C0005970310C9970290A5971290C9971210A6A
:1050D0005972210C9972110A360E1D711C722D0E17
:1050E000240E1A735973110C120EDE70DD71DC720E
:1050F0009973DA730020BDE8FE8F00BF000C000832
:1051000040AB00080004000870BC0008000800085C
:105110002DE9F047089D814617469A46DDF8248020
:105120000A9E1C6839BB11E02CB9484601212A4669
:105130002B46FFF765FC2A5D18F8013B013F5A40FA
:1051400006F8012B2B55013404F00F04002FEBD18E
:1051500013E02CB9484601212A462B46FFF750FCA4
:105160002B5D18F8012B013F534006F8013B2B55EE
:10517000013404F00F04002FEBD1CAF800400020E6
:10518000BDE8F08700000000000000000000000003
:1051900000EB810005E050F8043C01391BBA40F8EF
:1051A000043D0029F7D17047000000000000000016
:1051B0002DE9F04F81688DB00B91416AC669036992
:1051C00044698569C2680491099308940795069615
:1051D000076AB446049E0A9214464FF00009AC4B8D
:1051E0000B9D0999089ADDF81C800597CDF80C9065
:1051F0000196039ED0F828A0B6B1D0F860B0D0F8E0
:105200004C90CA444FEA7B4989EAFB4989EA9B29C9
:10521000D0F82CB0D1444FEAFB1A8AEABB4A8AEA9A
:10522000DB0ACA44C0F828A053F83C9CDDF804B05F
:105230000BEB09064FEAB81989EAF82989EA786977
:105240004E4487EA0C0909EA080989EA0709B144CA
:10525000CA4485EA040905EA040609EA010949EA9B
:1052600006094FEAB50686EA753686EAB5564E4413
:105270005244B244C66A0296039EBEB1D0F864B0EE
:10528000029ED0F85090B1444FEA7B4686EAFB4636
:1052900086EA9B2BCB44D0F830904FEAF91686EA89
:1052A000B94686EAD9065E44C66200E0029E53F81B
:1052B000389C4F4488EA0C0902EA090989EA0C097A
:1052C0004F444FEAB21989EAF22989EA7269B9446E
:1052D0004E448AEA05090AEA050709EA040949EA87
:1052E00007094FEABA0787EA7A3787EABA57B94413
:1052F000039F7118B144066B9FB1D0F828B0476D79
:10530000BF194FEA7B4686EAFB4686EA9B2BBB44E5
:10531000476B4FEAF71686EAB74686EAD7065E4439
:10532000066353F8347C89EA0A0BBC4482EA080716
:105330000F4087EA0807BC444FEAB11787EAF12714
:1053400087EA7167BC440BEA050B09EA0A074BEAD6
:10535000070B4FEAB90787EA793787EAB957BB44A1
:10536000039F66443419B344466B9FB1D0F82CC0F8
:10537000876DBF194FEA7C4686EAFC4686EA9C2C7C
:10538000BC44876B4FEAF71686EAB74686EAD7062B
:105390006644466353F8307C8BEA090CB84481EAD2
:1053A000020727405740B8444FEAB41787EAF4276A
:1053B00087EA7467B8440CEA0A0C0BEA09074CEA5E
:1053C000070C4FEABB0787EA7B3787EABB5746449F
:1053D00067447519BE19876B0297039FBFB1D0F858
:1053E0003080029FD0F85CC0BC444FEA784787EA1F
:1053F000F84787EA9828E044D0F83CC04FEAFC1709
:1054000087EABC4787EADC074744876300E0029FDE
:1054100053F82CCC624484EA010C05EA0C0C8CEAAB
:10542000010C62444FEAB51C8CEAF52C8CEA756CD1
:10543000624486EA0B0CD7190CEA090C06EA0B0247
:105440004CEA020C4FEAB60282EA763282EAB6529F
:105450006244BA44D719C26B0292039AD2B1D0F80F
:105460003480029AD0F860C094444FEA784282EACD
:10547000F84282EA9828E044D0F840C04FEAFC1293
:1054800082EABC4282EADC024244C26303E000BF1B
:10549000CCC10008029A53F828CC614485EA040C78
:1054A0000AEA0C0C8CEA040C61444FEABA1C8CEA40
:1054B000FA2C8CEA7A6C8C44624487EA060C07EA80
:1054C00006010CEA0B0C4CEA010C4FEAB70181EA29
:1054D000773181EAB7518C4491449444039A016C2A
:1054E000A2B1D0F83880426E51184FEA784282EA71
:1054F000F84282EA9822D0F844808A184FEAF811DC
:1055000081EAB84181EAD8015118016453F8242C8A
:10551000A4188AEA050209EA02026A40A4184FEABE
:10552000B91282EAF92282EA7962A2188CEA0704A7
:10553000511834400CEA070214434FEABC0282EAD5
:105540007C3282EABC52A218039C8B445118426CF4
:105550009CB1D0F83C80846AA4184FEA784282EA71
:10556000F84282EA9828A044846C4FEAF41282EA56
:10557000B44282EAD4024244426453F8204C2D19CA
:1055800089EA0A040BEA040484EA0A042D194FEAA2
:10559000BB1484EAFB2484EA7B642D19AA1881EAEF
:1055A0000C0501EA0C043D4025434FEAB10484EAAE
:1055B000713484EAB1542C19039D02EB0608A21839
:1055C000866C95B1056CC46AA6194FEA754484EAE5
:1055D000F54484EA9524C56C34194FEAF51686EA39
:1055E000B54686EAD506A619866453F81C4CA24433
:1055F0008BEA090408EA040484EA0904A2444FEA95
:10560000B81484EAF82484EA78645444A619F51995
:1056100082EA010702EA010407EA0C0727434FEA7E
:10562000B20484EA723484EAB2543C19A619039C89
:10563000C76CA4B1D0F844A0046BE7194FEA7A44D0
:1056400084EAFA4484EA9A24D0F850A03C194FEA3C
:10565000FA1787EABA4787EADA07E719C76453F8FF
:10566000184CA14488EA0B042C4084EA0B04A144A2
:105670004FEAB51484EAF52484EA75644C44E719CA
:10568000BC4486EA0209CDF808C009EA010906EA25
:10569000020C49EA0C094FEAB60C8CEA763C8CEA1B
:1056A000B65C039CCC446744D0F850C0B4B1D0F889
:1056B00048A0D0F83490E1444FEA7A4C8CEAFA4C96
:1056C0008CEA9A2ACA44D0F854904FEAF91C8CEA22
:1056D000B94C8CEAD90CD444C0F850C053F8149C8F
:1056E000DDF808A0CB4485EA08090AEA090989EA35
:1056F0000809CB444FEABA1989EAFA2989EA7A6992
:10570000CB44DC4487EA060A0CEB01090AEA020AE8
:1057100007EA06014AEA010A4FEAB70181EA77314E
:1057200081EAB751039C51448C44416DACB1D0F82F
:105730004CB0D0F838A08A444FEA7B4181EAFB4163
:1057400081EA9B2BD344D0F858A04FEAFA1181EAA2
:10575000BA4181EADA015944416553F810ACDDF8E9
:1057600008B0D0448BEA050A09EA0A0A8AEA050A5F
:10577000D0444FEAB91A8AEAF92A8AEA796AD04407
:1057800041448CEA070801EB020A08EA06080CEA21
:10579000070248EA02084FEABC0282EA7C3282EA47
:1057A000BC52904488440399826D99B1D0F850B0AE
:1057B000C16BC46D89184FEA7B4282EAFB4282EAE0
:1057C0009B2B4FEAF41282EAB4428B4482EAD40261
:1057D0005A44826553F80C1C029C6D1889EA040136
:1057E0000AEA010161406D184FEABA1181EAFA2113
:1057F00081EA7A61691888EA0C058A183D4008EA4E
:105800000C010D434FEAB80181EA783181EAB851C1
:105810006918039D961901968A18C16D9DB1D0F83B
:1058200054B0056C066E6D184FEA7B4181EAFB416E
:1058300081EA9B2B4FEAF61181EAB641AB4481EA3B
:10584000D6015944C16553F8085C029EDDF804B0E6
:1058500074198AEA09050BEA050585EA0905641940
:105860004FEABB1585EAFB2585EA7B65641982EA68
:105870000805611805EA0C0502EA080425434FEA09
:10588000B20484EA723484EAB2542C19039DCF190D
:105890006118046E9DB1D0F858B0456C466E2D1954
:1058A0004FEA7B4484EAFB4484EA9B2B4FEAF614DC
:1058B00084EAB644AB4484EAD6045C44046653F8F4
:1058C000045C019EA94486EA0A053D4085EA0A0572
:1058D000A9444FEAB71585EAF72585EA77654D446F
:1058E00081EA02092C1909EA080901EA020549EAD4
:1058F00005094FEAB10585EA713585EAB155039E80
:105900004D44A4442C19456EAEB1D0F85CB0D0F82B
:105910004890A9444FEA7B4585EAFB4585EA9B2BE5
:10592000CB44D0F828904FEAF91585EAB94585EAC5
:10593000D9055D44456653F8409BDDF804B0CA4480
:1059400087EA0B090CEA090989EA0B09CA444FEAFC
:10595000BC1989EAFC2989EA7C69D14484EA010AF4
:105960004D440AEA020A04EA01094AEA090A039EC6
:105970004FEAB40989EA7439103689EAB459D14436
:10598000402EA84403964D447FF433AC5E46DDF8C8
:1059900024B0DDF82C9059444D440161089985608C
:1059A000DDF828A0059D521854447F194261079ADA
:1059B000C4600762069C049F08EB02038361F6192A
:1059C0000CEB0403C36146620DB0BDE8F08F00BF6D
:1059D00003682DE9F041054603F03F00D3189342D8
:1059E0000F461446C0F140062B6012D26B6801339B
:1059F0006B600EE0324604F07BFD40461021FFF75D
:105A0000C7FB2846FFF7D4FBBF19A41B0020402684
:105A100001E005F12808B44240443946EAD2224662
:105A2000BDE8F04104F064BD00000000000000008B
:105A3000F8B5044650F8285B0E4605F03F05E91C12
:105A40008908FFF7A5FBE94301F00301C9008020A5
:105A50006FF07F0700FA01F007FA01F1AA0802F1DE
:105A60000A0354F82370372D01EA070140EA0101C7
:105A700044F8231008D93B2D01D800236366204643
:105A8000FFF796FB002200E00132002304EB8200C6
:105A9000194603E0C518A962013204330D2AF9D969
:105AA000236861685A0F42EAC102DB00226663661E
:105AB000204604F10805FFF77BFB28460821FFF785
:105AC00067FB29462022304604F012FD20460021C3
:105AD0006822BDE8F84004F0ABBD00000000000003
