:020000040800F2
:100000000050002085020008310100086501000849
:1000100095010008CD01000809020008C10200088E
:1000200011030008210200087503000845010008BB
:10003000690200085D000008D90000080000000007
:10004000080333002E003000BD7E1EAD4E495452D1
:100050004F4B45592D535441525400001B4B1A68C5
:1000600042F001021A601968184A8907FBD5116825
:1000700001F0F9011160002151605A68134912F032
:100080000C0FFAD10A6842F480320A6019680F4AEC
:100090008803FBD5516841F488115160116841F023
:1000A000807111601968094A8901FBD5084912203D
:1000B000516008490860516841F0020151605A6876
:1000C00002F00C02082AFAD1704700BF001002406B
:1000D0000084110000200240104B9A6942F00D028A
:1000E0009A610D22DA600022DA600D4A536843F00B
:1000F000007353600B4B4FF0FF32DA604FF08832E1
:100100005A60053A1A60A3F580636FF4C452DA604E
:10011000054A5A60054A1A60704700BF0010024045
:1001200000000140000C01404414813888444434EC
:10013000034B012208B11A6170475A61704700BF32
:10014000000C0140064BDA6922F40002DA614FF438
:1001500000021A614FF40042A3F584335A617047DC
:1001600000100240034B044A5A6002F188325A6080
:10017000704700BF0020024023016745044A013850
:10018000D36801D0D907FAD403F01500704700BF37
:100190000020024070B505464FF480300E46FFF750
:1001A000EDFF72B668B9084C4FF48030236943F014
:1001B000010323612E80FFF7E1FF236923F0010390
:1001C000236162B670BD00BF0020024038B505460D
:1001D0004FF08070FFF7D2FF72B688B9094C4FF02C
:1001E0008070236943F0020323616561236943F052
:1001F00040032361FFF7C2FF236923F00203236159
:1002000062B638BD0020024001448842034605D250
:100210001B780130FF2BF8D0002070470120704779
:100220000E4B07461C880E4B04F500341D680D4E1E
:10023000C5F30B0340F21445AB4214BF4FF4806585
:100240004FF40065A402A64205D23046FFF7BEFF78
:1002500010B92E44F7E7B847FEE700BFE0F7FF1FED
:10026000002004E0001000080449054BCA6802F0B1
:1002700070021343CB60BFF34F8FFEE700ED00E049
:100280000400FA0572B6084879464FF480521144CA
:10029000A2F1010221EA0201816051F8040B80F30E
:1002A00008880868004700BF00ED00E00149024AE5
:1002B000024B00BF000C0008000800080004000802
:1002C000F8B5114B0E469842174601D80020F8BDEC
:1002D0000E4B82181B8803F50033B2EB832FF5D841
:1002E0000C46451A3B1BDE4204EB05000AD014F80D
:1002F000023B14F8011C43EA0121FFF74BFF0028E1
:10030000F0D0E3E70120F8BDFF0F0008E0F7FF1F82
:1003100010B54FF08070FFF731FF72B6C8B9124BBD
:10032000124A9A6002F188329A601A690E4C92055C
:10033000FBD523694FF0807043F0200323612369CC
:1003400043F040032361FFF719FF236923F02003E3
:10035000236162B630B9064B1878A0F1FF0358420A
:10036000584110BD002010BD002002402301674508
:1003700000F8FF1F0F4808B5C3691B020DD40E4BD0
:100380004FF400421A61C36943F40003C3614FF4A0
:10039000000303610023036108BD036913F4000136
:1003A000EDD1FFF7CFFE0B460133B3F5B47FFBD1A0
:1003B000E5E700BF00100240000801400000000017
:1003C000000000000000000000000000000000002D
:1003D000000000000000000000000000000000001D
:1003E000000000000000000000000000000000000D
:1003F00000000000000000000000000000000000FD
:10040000C66363A5F87C7C84EE777799F67B7B8D59
:10041000FFF2F20DD66B6BBDDE6F6FB191C5C554A7
:100420006030305002010103CE6767A9562B2B7D47
:10043000E7FEFE19B5D7D7624DABABE6EC76769A00
:100440008FCACA451F82829D89C9C940FA7D7D87AE
:10045000EFFAFA15B25959EB8E4747C9FBF0F00B8A
:1004600041ADADECB3D4D4675FA2A2FD45AFAFEA16
:10047000239C9CBF53A4A4F7E47272969BC0C05BFC
:1004800075B7B7C2E1FDFD1C3D9393AE4C26266ABD
:100490006C36365A7E3F3F41F5F7F70283CCCC4F9E
:1004A0006834345C51A5A5F4D1E5E534F9F1F108DF
:1004B000E2717193ABD8D873623131532A15153F6D
:1004C0000804040C95C7C752462323659DC3C35E29
:1004D00030181828379696A10A05050F2F9A9AB555
:1004E0000E070709241212361B80809BDFE2E23DD3
:1004F000CDEBEB264E2727697FB2B2CDEA75759F0B
:100500001209091B1D83839E582C2C74341A1A2E31
:10051000361B1B2DDC6E6EB2B45A5AEE5BA0A0FBEC
:10052000A45252F6763B3B4DB7D6D6617DB3B3CEDF
:100530005229297BDDE3E33E5E2F2F7113848497DC
:10054000A65353F5B9D1D16800000000C1EDED2CE0
:1005500040202060E3FCFC1F79B1B1C8B65B5BEDC5
:10056000D46A6ABE8DCBCB4667BEBED97239394BD1
:10057000944A4ADE984C4CD4B05858E885CFCF4ABC
:10058000BBD0D06BC5EFEF2A4FAAAAE5EDFBFB1657
:10059000864343C59A4D4DD76633335511858594AF
:1005A0008A4545CFE9F9F91004020206FE7F7F81F2
:1005B000A05050F0783C3C44259F9FBA4BA8A8E33C
:1005C000A25151F35DA3A3FE804040C0058F8F8AE6
:1005D0003F9292AD219D9DBC70383848F1F5F504ED
:1005E00063BCBCDF77B6B6C1AFDADA7542212163EE
:1005F00020101030E5FFFF1AFDF3F30EBFD2D26DCD
:1006000081CDCD4C180C0C1426131335C3ECEC2FF4
:10061000BE5F5FE1359797A2884444CC2E17173907
:1006200093C4C45755A7A7F2FC7E7E827A3D3D470E
:10063000C86464ACBA5D5DE73219192BE673739533
:10064000C06060A0198181989E4F4FD1A3DCDC7FF0
:1006500044222266542A2A7E3B9090AB0B888883E2
:100660008C4646CAC7EEEE296BB8B8D32814143CA2
:10067000A7DEDE79BC5E5EE2160B0B1DADDBDB7622
:10068000DBE0E03B64323256743A3A4E140A0A1EFA
:10069000924949DB0C06060A4824246CB85C5CE4E9
:1006A0009FC2C25DBDD3D36E43ACACEFC46262A641
:1006B000399191A8319595A4D3E4E437F279798BF7
:1006C000D5E7E7328BC8C8436E373759DA6D6DB757
:1006D000018D8D8CB1D5D5649C4E4ED249A9A9E02F
:1006E000D86C6CB4AC5656FAF3F4F407CFEAEA25AA
:1006F000CA6565AFF47A7A8E47AEAEE9100808187D
:100700006FBABAD5F07878884A25256F5C2E2E729C
:10071000381C1C2457A6A6F173B4B4C797C6C6519B
:10072000CBE8E823A1DDDD7CE874749C3E1F1F212B
:10073000964B4BDD61BDBDDC0D8B8B860F8A8A85A8
:10074000E07070907C3E3E4271B5B5C4CC6666AA3E
:10075000904848D806030305F7F6F6011C0E0E1262
:10076000C26161A36A35355FAE5757F969B9B9D02F
:100770001786869199C1C1583A1D1D27279E9EB99B
:10078000D9E1E138EBF8F8132B9898B32211113323
:10079000D26969BBA9D9D970078E8E89339494A781
:1007A0002D9B9BB63C1E1E2215878792C9E9E92026
:1007B00087CECE49AA5555FF50282878A5DFDF7A85
:1007C000038C8C8F59A1A1F8098989801A0D0D1706
:1007D00065BFBFDAD7E6E631844242C6D06868B862
:1007E000824141C3299999B05A2D2D771E0F0F11BF
:1007F0007BB0B0CBA85454FC6DBBBBD62C16163ABC
:10080000A5C6636384F87C7C99EE77778DF67B7B55
:100810000DFFF2F2BDD66B6BB1DE6F6F5491C5C5A3
:100820005060303003020101A9CE67677D562B2B43
:1008300019E7FEFE62B5D7D7E64DABAB9AEC7676FC
:10084000458FCACA9D1F82824089C9C987FA7D7DAA
:1008500015EFFAFAEBB25959C98E47470BFBF0F086
:10086000EC41ADAD67B3D4D4FD5FA2A2EA45AFAF12
:10087000BF239C9CF753A4A496E472725B9BC0C0F8
:10088000C275B7B71CE1FDFDAE3D93936A4C2626B9
:100890005A6C3636417E3F3F02F5F7F74F83CCCC9A
:1008A0005C683434F451A5A534D1E5E508F9F1F1DB
:1008B00093E2717173ABD8D8536231313F2A151569
:1008C0000C0804045295C7C7654623235E9DC3C325
:1008D00028301818A13796960F0A0505B52F9A9A51
:1008E000090E0707362412129B1B80803DDFE2E2CF
:1008F00026CDEBEB694E2727CD7FB2B29FEA757507
:100900001B1209099E1D838374582C2C2E341A1A2D
:100910002D361B1BB2DC6E6EEEB45A5AFB5BA0A0E8
:10092000F6A452524D763B3B61B7D6D6CE7DB3B3DB
:100930007B5229293EDDE3E3715E2F2F97138484D8
:10094000F5A6535368B9D1D1000000002CC1EDEDDC
:10095000604020201FE3FCFCC879B1B1EDB65B5BC1
:10096000BED46A6A468DCBCBD967BEBE4B723939CD
:10097000DE944A4AD4984C4CE8B058584A85CFCFB8
:100980006BBBD0D02AC5EFEFE54FAAAA16EDFBFB53
:10099000C5864343D79A4D4D5566333394118585AB
:1009A000CF8A454510E9F9F90604020281FE7F7FEE
:1009B000F0A0505044783C3CBA259F9FE34BA8A838
:1009C000F3A25151FE5DA3A3C08040408A058F8FE2
:1009D000AD3F9292BC219D9D4870383804F1F5F5E9
:1009E000DF63BCBCC177B6B675AFDADA63422121EA
:1009F000302010101AE5FFFF0EFDF3F36DBFD2D2C9
:100A00004C81CDCD14180C0C352613132FC3ECECF0
:100A1000E1BE5F5FA2359797CC884444392E171703
:100A20005793C4C4F255A7A782FC7E7E477A3D3D0A
:100A3000ACC86464E7BA5D5D2B32191995E673732F
:100A4000A0C0606098198181D19E4F4F7FA3DCDCEC
:100A5000664422227E542A2AAB3B9090830B8888DE
:100A6000CA8C464629C7EEEED36BB8B83C2814149E
:100A700079A7DEDEE2BC5E5E1D160B0B76ADDBDB1E
:100A80003BDBE0E0566432324E743A3A1E140A0AF6
:100A9000DB9249490A0C06066C482424E4B85C5CE5
:100AA0005D9FC2C26EBDD3D3EF43ACACA6C462623D
:100AB000A8399191A431959537D3E4E48BF27979F3
:100AC00032D5E7E7438BC8C8596E3737B7DA6D6D53
:100AD0008C018D8D64B1D5D5D29C4E4EE049A9A92B
:100AE000B4D86C6CFAAC565607F3F4F425CFEAEAA6
:100AF000AFCA65658EF47A7AE947AEAE1810080879
:100B0000D56FBABA88F078786F4A2525725C2E2E98
:100B100024381C1CF157A6A6C773B4B45197C6C697
:100B200023CBE8E87CA1DDDD9CE87474213E1F1F27
:100B3000DD964B4BDC61BDBD860D8B8B850F8A8AA4
:100B400090E07070427C3E3EC471B5B5AACC66663A
:100B5000D89048480506030301F7F6F6121C0E0E5E
:100B6000A3C261615F6A3535F9AE5757D069B9B92B
:100B7000911786865899C1C1273A1D1DB9279E9E97
:100B800038D9E1E113EBF8F8B32B9898332211111F
:100B9000BBD2696970A9D9D989078E8EA73394947D
:100BA000B62D9B9B223C1E1E9215878720C9E9E922
:100BB0004987CECEFFAA5555785028287AA5DFDF81
:100BC0008F038C8CF859A1A180098989171A0D0D02
:100BD000DA65BFBF31D7E6E6C6844242B8D068685E
:100BE000C3824141B0299999775A2D2D111E0F0FBB
:100BF000CB7BB0B0FCA85454D66DBBBB3A2C1616B8
:100C000063A5C6637C84F87C7799EE777B8DF67B51
:100C1000F20DFFF26BBDD66B6FB1DE6FC55491C59F
:100C2000305060300103020167A9CE672B7D562B3F
:100C3000FE19E7FED762B5D7ABE64DAB769AEC76F8
:100C4000CA458FCA829D1F82C94089C97D87FA7DA6
:100C5000FA15EFFA59EBB25947C98E47F00BFBF082
:100C6000ADEC41ADD467B3D4A2FD5FA2AFEA45AF0E
:100C70009CBF239CA4F753A47296E472C05B9BC0F4
:100C8000B7C275B7FD1CE1FD93AE3D93266A4C26B5
:100C9000365A6C363F417E3FF702F5F7CC4F83CC96
:100CA000345C6834A5F451A5E534D1E5F108F9F1D7
:100CB0007193E271D873ABD831536231153F2A1565
:100CC000040C0804C75295C723654623C35E9DC321
:100CD0001828301896A13796050F0A059AB52F9A4D
:100CE00007090E0712362412809B1B80E23DDFE2CB
:100CF000EB26CDEB27694E27B2CD7FB2759FEA7503
:100D0000091B1209839E1D832C74582C1A2E341A29
:100D10001B2D361B6EB2DC6E5AEEB45AA0FB5BA0E4
:100D200052F6A4523B4D763BD661B7D6B3CE7DB3D7
:100D3000297B5229E33EDDE32F715E2F84971384D4
:100D400053F5A653D168B9D100000000ED2CC1EDD8
:100D500020604020FC1FE3FCB1C879B15BEDB65BBD
:100D60006ABED46ACB468DCBBED967BE394B7239C9
:100D70004ADE944A4CD4984C58E8B058CF4A85CFB4
:100D8000D06BBBD0EF2AC5EFAAE54FAAFB16EDFB4F
:100D900043C586434DD79A4D3355663385941185A7
:100DA00045CF8A45F910E9F9020604027F81FE7FEA
:100DB00050F0A0503C44783C9FBA259FA8E34BA834
:100DC00051F3A251A3FE5DA340C080408F8A058FDE
:100DD00092AD3F929DBC219D38487038F504F1F5E5
:100DE000BCDF63BCB6C177B6DA75AFDA21634221E6
:100DF00010302010FF1AE5FFF30EFDF3D26DBFD2C5
:100E0000CD4C81CD0C14180C13352613EC2FC3ECEC
:100E10005FE1BE5F97A2359744CC884417392E17FF
:100E2000C45793C4A7F255A77E82FC7E3D477A3D06
:100E300064ACC8645DE7BA5D192B32197395E6732B
:100E400060A0C060819819814FD19E4FDC7FA3DCE8
:100E5000226644222A7E542A90AB3B9088830B88DA
:100E600046CA8C46EE29C7EEB8D36BB8143C28149A
:100E7000DE79A7DE5EE2BC5E0B1D160BDB76ADDB1A
:100E8000E03BDBE0325664323A4E743A0A1E140AF2
:100E900049DB9249060A0C06246C48245CE4B85CE1
:100EA000C25D9FC2D36EBDD3ACEF43AC62A6C46239
:100EB00091A8399195A43195E437D3E4798BF279EF
:100EC000E732D5E7C8438BC837596E376DB7DA6D4F
:100ED0008D8C018DD564B1D54ED29C4EA9E049A927
:100EE0006CB4D86C56FAAC56F407F3F4EA25CFEAA2
:100EF00065AFCA657A8EF47AAEE947AE0818100875
:100F0000BAD56FBA7888F078256F4A252E725C2E94
:100F10001C24381CA6F157A6B4C773B4C65197C693
:100F2000E823CBE8DD7CA1DD749CE8741F213E1F23
:100F30004BDD964BBDDC61BD8B860D8B8A850F8AA0
:100F40007090E0703E427C3EB5C471B566AACC6636
:100F500048D8904803050603F601F7F60E121C0E5A
:100F600061A3C261355F6A3557F9AE57B9D069B927
:100F700086911786C15899C11D273A1D9EB9279E93
:100F8000E138D9E1F813EBF898B32B98113322111B
:100F900069BBD269D970A9D98E89078E94A7339479
:100FA0009BB62D9B1E223C1E87921587E920C9E91E
:100FB000CE4987CE55FFAA5528785028DF7AA5DF7D
:100FC0008C8F038CA1F859A1898009890D171A0DFE
:100FD000BFDA65BFE631D7E642C6844268B8D0685A
:100FE00041C3824199B029992D775A2D0F111E0FB7
:100FF000B0CB7BB054FCA854BBD66DBB163A2C16B4
:1010000060000020F113000891460108A146010884
:10101000B1460108C1460108D1460108E146010870
:10102000E1460108E1460108E1460108414D010899
:10103000E1460108E1460108314C0108B14D0108C3
:10104000C14B0108C14B0108C14B0108C14B01084C
:10105000C14B0108C14B0108C14B0108C14B01083C
:10106000C14B0108C14B0108C14B0108C14B01082C
:10107000C14B0108C14B0108C14B0108C14B01081C
:10108000C14B0108C14B0108C14B0108C14B01080C
:10109000C14B0108C14B0108C14B0108C14B0108FC
:1010A000C14B0108C14B0108C14B0108C14B0108EC
:1010B000C14B0108C14B0108C14B0108C14B0108DC
:1010C000C14B0108C14B0108C14B0108C14B0108CC
:1010D000C14B0108C14B0108C14B0108C14B0108BC
:1010E000C14B0108C14B0108C14B0108C14B0108AC
:1010F0002DE9F04F87B009F00BFB012014F0B8FA8E
:10110000A14813F075FFA14AA14BA24D1A60A24B52
:1011100000221A60EB689847A048837EFF2B15D009
:1011200015F086F89E4814F0BBFA10F0B9FC0023C5
:1011300000934FF4D0729B4B9B49032013F0F0FEB9
:101140008246052014F074FA984C27E0C37EFF2BEA
:10115000E6D1037FFF2BE3D1437FFF2BE0D1944FF8
:10116000DFF8848200F11C0417F8016DA01E33091A
:10117000092B8CBF37213021194409F061FD06F09D
:101180000F06092E8CBF372130212046314409F04B
:1011900057FD474504F10404E6D1C1E723681BB9B4
:1011A000844814F065F8F9E7DFF8408282497C480A
:1011B00014F09EFAC146002626B18049784814F002
:1011C000E7FA02E0764814F0C3FA082860D007D89E
:1011D000022814D004281BD0012840F0B2801BE064
:1011E000202800F0B480B0F5807F00F0A88010289F
:1011F00040F0A780724B187804F0E2FCDCE74CF278
:101200005031084604F0E4FC6E494CF250309BE04B
:1012100005F0EEFE012802D16A496B4894E046F2DF
:10122000A81498F80020684F12F0040F0390634947
:1012300014BF3846204604F0CBFC99F800205F49E3
:1012400012F0020F14BF3846204604F0C1FC99F892
:101250000020DFF868B112F0010F14BF38462046B5
:10126000594604F0B5FC039B022B07D1574B584A53
:10127000012105A8059314F0A3F89DE70121544A24
:1012800005A8CDF814B014F09BF84E4920465BE059
:10129000012004F095FC46F2A81013F0E9FF0020AD
:1012A00004F08EFC454813F0E3FF012004F088FCB5
:1012B00046F2A81013F0DCFF002004F081FC3F4848
:1012C00013F0D6FF012004F07BFC46F2A81013F0C7
:1012D000CFFF002004F074FC3E4C3A4813F0C8FFE6
:1012E000012004F06DFC2378DA074CBF364846F243
:1012F000A81013F0BDFF002004F062FC2F4813F08B
:10130000B7FF012004F05CFC23789B074CBF2E48FC
:1013100046F2A81013F0ACFF002004F051FC27485F
:1013200013F0A6FF012004F04BFC264813F0A0FFA9
:10133000002004F045FC284813F09AFFA8E786F047
:10134000010646F2A811084604F042FC34E710F00A
:10135000B7FB012004F034FC14F022FC00215046BD
:1013600013F0C6FF1D4A1E4B9A605079137903EBA8
:101370000023907903EB0043D0796A6A03EB0063A2
:1013800018481844904700BF501B002070280020C8
:101390007C1B002000000008601B0020B0690108D1
:1013A000841B002031700008E0010020441C002054
:1013B000F4F7FF1F90D00300641B0020F824010005
:1013C000781B0020400D0300A0860100801A060053
:1013D00070680108801B0020B0710B00002A0020FB
:1013E00000ED00E000160000F0F7FF1F4D1F002089
:1013F00013F07EF94FF000001549164A914202D0D1
:1014000041F8040BFAE71449144A154B914204D0F1
:1014100053F8040B41F8040BF8E71248A0F1400020
:1014200080F309884FF0020181F31488BFF36F8FB6
:1014300013F02EFD13F01CFD13F09AF94FF000008D
:1014400080F3118862B60146FFF752FEFEE7000006
:10145000401B002064280020401B0020401B00206F
:1014600080A50108E001002000000000000000004D
:101470002DE9F0470024864620461EF47E6F00F0DA
:10148000FF80B1E8000792E8E000AEF1200E2D18D1
:10149000A3FB084848F100002D194641A3FB094869
:1014A00048F1000036194741A3FB0A4848F1000003
:1014B0003F19E0C2B1E8000792E8E0004541A8FB0F
:1014C000034848F100002D194641A9FB034848F1A3
:1014D000000036194741AAFB034848F100003F19B4
:1014E000E0C2B1E8000792E8E0004541A8FB0348EC
:1014F00048F100002D194641A9FB034848F10000BE
:1015000036194741AAFB034848F100003F19E0C2E1
:10151000B1E8000792E8E0004541A8FB034848F124
:1015200000002D194641A9FB034848F10000361977
:101530004741AAFB034848F100003F19E0C2B1E867
:10154000000792E8E0004541A8FB034848F100008D
:101550002D194641A9FB034848F1000036194741BF
:10156000AAFB034848F100003F19E0C2B1E80007B8
:1015700092E8E0004541A8FB034848F100002D191E
:101580004641A9FB034848F1000036194741AAFB30
:10159000034848F100003F19E0C2B1E8000792E8B3
:1015A000E0004541A8FB034848F100002D194641E1
:1015B000A9FB034848F1000036194741AAFB03483C
:1015C00048F100003F19E0C2B1E8000792E8E000EE
:1015D0004541A8FB034848F100002D194641A9FBED
:1015E000034848F1000036194741AAFB034848F177
:1015F00000003F19E0C2B1E8000792E8E000454171
:10160000A8FB034848F100002D194641A9FB0348F7
:1016100048F1000036194741AAFB034848F1000091
:101620003F19E0C2B1E8000792E8E0004541A8FB9D
:10163000034848F100002D194641A9FB034848F131
:10164000000036194741AAFB034848F100003F1942
:10165000E0C2B1E8000392E860004541A3FB0848FE
:1016600048F100002D194641A3FB094848F100004C
:10167000361940F1000060C21EF47E6F7FF401AFA6
:10168000BEF1000F10D00031156851F8044B4541F0
:10169000A3FB046747F10000AD1942F8045B40F179
:1016A0000000BEF1010EEED11368034483421360C3
:1016B0002CBF00200120BDE8F08700BF002800F00B
:1016C000EA802DE9F04F8BB0079282009A4608928B
:1016D0009A189346019303EBC0030025043B049042
:1016E0000591099203950693CDF808A0029A069CED
:1016F000DBF800004BF8045B019BA24659464FF013
:10170000000E1D687446E0FB005443F8045B51452D
:101710003BD8F14625D0B1E8800193E86000A0FBFA
:10172000077C2D194EEB0904ED1954EB0C0449EB21
:10173000090EED1954EB0C044EEB090E36194EEB65
:101740000904A0FB087CF61954EB0C0449EB090EC4
:10175000F61954EB0C044EEB090E60C35145DAD375
:1017600013D11D6851F8046B2D194EEB0904A0FB31
:10177000067CED1954EB0C0449EB090EED1954EB02
:101780000C044EEB090E43F8045B1D6864194EF11E
:10179000000E1C6013680799049E03FB01F330469A
:1017A00005997446FFF764FE019A039B0832019283
:1017B000029A013304329E420393029204EB000525
:1017C00094D1099B089A991851F8043C0439002BCC
:1017D00062D1049B02E051F8042D0AB9013BFAD111
:1017E0000898059A049C024452F8040C043A20B16B
:1017F0003BE052F8040D002837D1013CF9D14FF0FD
:10180000010A55EA0A0A0ED1099B089A04999B1A03
:1018100031B152460AF1010A514543F8042BF9D17E
:101820000BB0BDE8F08F049B002BF9D000200446DC
:101830009C46059A111F099A156801302B1B1360ED
:1018400051F8046FB3422CBF4FF0000E4FF0010E61
:101850009B1BA5422CBF74460EF10104844542F83F
:10186000043BE9D10BB0BDE8F08FA342C7D80FD33A
:10187000086814688442C2D307D909E051F8044DBE
:1018800052F8040D8442BAD802D3013BF6D1B6E730
:101890004FF0000AB5E77047049B1046A1E700BF70
:1018A000F8B58E00044630460D4604F0E1F9C0B1AB
:1018B00000213246074604F003F9A16869B1626865
:1018C0003846920004F084F8626800219200A06813
:1018D00004F0F6F8A06804F01BFA6560A760002029
:1018E000F8BD6FF00F00F8BD436830B473B1856880
:1018F00003F18042013A55F8224005EB82021CB107
:101900000CE052F8044D4CB9013BFAD18B681868D1
:10191000003018BF0120404230BC70478A6812680E
:1019200012B930BC00687047012BFAD80068002853
:1019300008DB2B689A42EFD302D830BC00207047F6
:101940004042E9E74FF0FF30E6E700BF2DE9F04FF6
:1019500083B0DDF830B000284FD01D468300EF186B
:1019600006460020B94601978A46804617460093EE
:10197000D9F8002049F8040B2968DBF80040134629
:1019800004FB021407FB04F42A4659463046FFF7CD
:101990006FFD08F101082A46234651463046FFF7FD
:1019A00067FD464505F10405E2D19DE88800FD1874
:1019B00055F8043C043D002B52D1334602E055F863
:1019C000042D0AB9013BFAD1009A524452F8041C82
:1019D000043A89BB314602E052F8044D6CBB013930
:1019E000FAD1012318430BD1009BFF1A2EB10346F5
:1019F0000130864247F8043BFAD103B0BDE8F08FCE
:101A0000002EFAD000210846AAF1040A3A680131F2
:101A1000131A3B605AF8044FA3422CBF002501253E
:101A20001B1B82422CBF2846681C8E4247F8043B91
:101A3000ECD103B0BDE8F08F31469942D1D30DD837
:101A40002C6811688C42CCD808D3013BC9D055F81A
:101A5000044D52F8041D8C42C3D8F6D20023C1E7CE
:101A60003346B1E7002800F093802DE9F04F1C4683
:101A700083000546E618002092468946B046074690
:101A800083B00193A3F1040BD8F8003048F8040B9D
:101A90002168224619448B4294BF4FF0000E4FF04C
:101AA000010E012D0AFB01F344F8041B0ED9204658
:101AB0000BEB040C01687144714540F8041B2CBF0A
:101AC0004FF0000E4FF0010E8445F3D10137494627
:101AD0002846FFF7CDFCBD42D6D1019BF21852F843
:101AE000043C043A002B54D12B4602E052F8041D6A
:101AF00009B9013BFAD1019909EB010757F8041C18
:101B0000043F89BB294602E057F8044D6CBB0139FC
:101B1000FAD1012318430BD1019BF61A2DB10346CC
:101B20000130854246F8043BFAD103B0BDE8F08F9E
:101B3000002DFAD000210846A9F1040932680131CC
:101B4000131A336059F8044FA3422CBF0027012712
:101B50001B1B82422CBF3846781C8D4246F8043B42
:101B6000ECD103B0BDE8F08F29468B42D1D80DD31C
:101B7000146839688C42CCD808D3013BC9D052F8DC
:101B8000044D57F8041D8C42C3D8F6D20023C1E798
:101B900070472B46AFE700BF70B5456804465DB19E
:101BA0008068AA00002103F08BFFA16800230122B6
:101BB0000B601846226070BD042004F059F80646F8
:101BC000A8B10560A16861B16268920003F000FFEE
:101BD000626829469200A06803F072FFA06804F0D2
:101BE00097F80123A660304663600422DAE76FF0BD
:101BF0000F0070BD20B10023012280E80C0083603B
:101C0000704700BF88B110B50446806838B162687B
:101C10000021920003F054FFA06804F079F800233B
:101C2000012284E80C00A36010BD7047F8B542F2B1
:101C30001073994224D84368994201D80020F8BD16
:101C40008E00044630460D4604F012F80746B8B13F
:101C50000021324603F034FFA16869B1626838465A
:101C6000920003F0B5FE626800219200A06803F0C4
:101C700027FFA06804F04CF86560A7600020F8BD5D
:101C80006FF00F00F8BD00BF884251D04B682DE9BE
:101C9000F041013B0BD08C689A0054F82350224449
:101CA0001DB11AE052F8044DBCB9013BFAD10B68E2
:101CB00004270360012442680D46A242064617D35A
:101CC00080689200002103F0FBFE3A46A968B068E4
:101CD00003F07EFE0020BDE8F08142F210720D6834
:101CE0005C1C9442056025D96FF00F00BDE8F081BF
:101CF000384603F0BDFF80460028F5D000213A4663
:101D000003F0DEFEB16869B172684046920003F0EC
:101D10005FFE726800219200B06803F0D1FEB068E7
:101D200003F0F6FF7460C6F8088040463A46C9E7FB
:101D300000207047A700BEE72DE9F0434B6885B04F
:101D40000E460446154683B1B26803F1804101395D
:101D500052F8210002EB810228B194E052F8041DF0
:101D6000002940F09080013BF8D16A6882B1AF68E9
:101D700002F18041013957F8213007EB81012BB185
:101D8000BFE051F8040D002840F08B80013AF8D1F3
:101D900000230122A54201920293039300F0D68012
:101DA000A64223D07368013B0DD0B1689A0051F868
:101DB00023000A4428B19AE052F8041D002940F09B
:101DC0009680013BF8D133684FF004082360012767
:101DD0006268BA42C0F09A80A0689200002103F0C5
:101DE0006FFE4246B168A06803F0F2FD6968012306
:101DF000236071B1AA6801F18043013B52F82300CE
:101E000002EB830318B113E053F8040D80B90139D4
:101E1000FAD10025039838B1029A0021920003F00C
:101E20004FFE039803F074FF284605B0BDE8F08329
:101E3000A468002520462B46A2F1040E0668013551
:101E4000F21A02605EF8047FBA422CBF4FF0000C19
:101E50004FF0010CD21B9E422CBF63460CF10103D4
:101E6000A94240F8042BE9D804EB8101002BD0D023
:101E70000A689A42A2EB030341F8043B34BF0123F2
:101E80000023F5D3C5E76A68002A81D0AF6802F164
:101E90008041013957F8210007EB810100283FF408
:101EA00075AF93423FF674AF2BD3002B3FF470AF66
:101EB000B26803F18041013952F821E057F821C09E
:101EC0008900F44502EB010007EB0102FFF460AF6B
:101ED00098BF014608D914E051F8047D52F8040D6A
:101EE00087423FF655AF0CD3013BF5D150E742F2A4
:101EF000107231685F1C9742216031D96FF00F0575
:101F000088E76FF0090005B0BDE8F083404603F0B4
:101F1000AFFE81460028F1D00021424603F0D0FDFB
:101F2000A16869B162684846920003F051FD626899
:101F300000219200A06803F0C3FDA06803F0E8FE52
:101F40006760C4F808904846424647E7294601A81A
:101F5000FFF79AFE054600287FF45CAF01AD1FE74E
:101F60004FEA870834E700BFF0B405460C4684B05A
:101F700001AB1E4600686968AA68276807C36268E3
:101F8000A3686A602F60AB6007CE20606160A260CA
:101F900004B0F0BC704700BFF8B5456804460F4672
:101FA00095B18068AA00002103F08AFD002F87EA1E
:101FB000E771A268A1EBE771ACBF01234FF0FF33DB
:101FC000116000202360F8BD042003F051FE064696
:101FD000A8B10560A16861B16268920003F0F8FCE5
:101FE000626829469200A06803F06AFDA06803F0C9
:101FF0008FFE0123A660304663600422D3E76FF0B2
:102000000F00F8BD4368B1EB431F0AD283684A0949
:1020100053F8223001F01F0023FA00F000F0010015
:1020200070470020704700BF012A4BD843682DE954
:10203000F047B1EB431F4FEA5117054616460C46D1
:1020400010D2A86804F01F0150F8273001248C40FA
:1020500006FA01F223EA0401114340F82710002098
:10206000BDE8F087002AFAD042F2107207F10109A8
:10207000914503D96FF00F00BDE8F0874B45E0D2E2
:102080004FEA890A504603F0F3FD80460028F1D05C
:102090000021524603F014FDA96869B16A68404600
:1020A000920003F095FC6A6800219200A86803F092
:1020B00007FDA86803F02CFEC5F80490C5F8088059
:1020C0004046BFE76FF00300704700BF034640681B
:1020D000A8B170B4002631469D68043D55F8044F00
:1020E000002203E0202A01F1010109D024FA02F3C1
:1020F00013F0010302F10102F4D0084670BC7047EE
:102100000136B042EAD11846F8E700BF436810B480
:10211000013B1BD081689A0051F823000A4418B192
:1021200012E052F8040D78B9013BFAD11A4608685A
:10213000202301E00B4621B1591E20FA01F4E407E7
:10214000F8D5981810BC70475A01F1E71A46836811
:102150001868EDE7436810B4013B1DD080689A0011
:1021600050F82310024419B113E052F8041D81B94C
:10217000013BFAD101680723202001E0104622B17B
:10218000421E21FA02F4E407F8D51844C00810BC36
:1021900070475B010733EFE7826807231168EBE7BD
:1021A0002DE9F04780460F461546002A00F08E8044
:1021B0000C780B461CB18DE013F8012F1AB90134CD
:1021C000A542F9D12C4642F21073EE1C361BB6081C
:1021D0009E4203D96FF00F00BDE8F087D8F8049055
:1021E0004E4528D8B9F1000F4CD0D8F808004FEA76
:1021F0008902002103F064FCD8F808E000210123E3
:10220000A542CEF80010C8F8003011D97E192C1B59
:102210008808CB0016F8012D5EF8207003F0180333
:1022200002FA03F301313B43A1424EF82030EFD1D3
:102230000020BDE8F0874FEA8609484603F018FD04
:1022400082460028C6D000214A4603F039FCD8F85F
:10225000081089B1D8F804205046920003F0B8FB6A
:10226000D8F8042000219200D8F8080003F028FCD8
:10227000D8F8080003F04CFDC8F80460C8F808A0BE
:10228000B146B2E7042003F0F3FC06460028A1D0D3
:10229000C0F80090D8F8081081B1D8F80420920056
:1022A00003F096FBD8F8042049469200D8F80800BD
:1022B00003F006FCD8F8080003F02AFD0123C8F853
:1022C00008603046C8F80430042292E7D0F8049041
:1022D000144687E7002476E7F8B54368013B3AD017
:1022E00085689C0055F823602C441EB12DE054F8FD
:1022F000046D56BB013BFAD12E680723202401E070
:102300002C4625B1651E26FA05F7FF07F8D51C44B3
:10231000E408A2421CD30E4607460021304615466B
:1023200003F0CEFB7CB171190023BA68980852F80B
:102330002060DD0005F01805013326FA05F5A342FB
:1023400001F8015DF1D10020F8BD5B010733D5E74D
:102350006FF00700F8BD846807232668CEE700BF4A
:10236000D0F804C02DE9F843BCF1010307464FEA59
:10237000511501F01F067ED080689A0050F8234066
:10238000024424B151E052F8044D002C4DD1013BE0
:10239000F9D11A460468202301E0034628B1581EEB
:1023A00024FA00FE1EF0010FF7D011440B44B3EBEA
:1023B0004C1F07D942F210721F335C09944236D881
:1023C000644538D8C5B17A68954258D202F1804345
:1023D000B868013B5B1B00EB830300EB820200EB60
:1023E000850453F8041942F8041D9442F9D12A4691
:1023F0009200002103F064FBA6B17868854211D2F7
:10240000BB68C6F1200403EB850503EB80000023C5
:102410002A6802FA06F10B4345F8043B854222FA8A
:1024200004F3F5D10020BDE8F8835A01B3E76FF05B
:102430000F00BDE8F8834FEA8408404603F018FC1B
:1024400081460028F3D00021424603F039FBB968E9
:1024500069B17A684846920003F0BAFA7A680021B6
:102460009200B86803F02CFBB86803F051FC7C6064
:10247000C7F80890A6E780681A4604688BE7002A28
:10248000BAD0B868B4E700BFF8B544684F09A742AE
:10249000064630D801F01F052CD0BFB1E01B0BD091
:1024A000B268134602EB870203EB800752F8041B65
:1024B00043F8041B9F42F9D1844207D9B368221A1A
:1024C000920003EB8000002103F0FAFA85B17CB1A1
:1024D000B668C5F1200706EB8402002352F8040D0C
:1024E00020FA05F10B43B242136000FA07F3F5D16D
:1024F0000020F8BD5DB174B1B068A200002103F006
:10250000DFFAB2680020012310603360F8BD002CB0
:10251000EED02846D2E7042003F0AAFB0546A8B176
:102520000460B16861B17268920003F051FA726898
:1025300021469200B06803F0C3FAB06803F0E8FBEC
:102540000123B560284673600422D7E76FF00F00BF
:10255000F8BD00BF436870B473B1826803F1804472
:10256000013C52F8245002EB84021DB11BE052F8EA
:10257000044DC4B9013BFAD14A68002A48D08D689D
:1025800002F18041013955F8213005EB81011BB181
:1025900040E051F8044D94B9013AFAD1181C18BF23
:1025A000012070BC70474A685AB38D6802F18041BF
:1025B000013955F8214005EB8101002CECD09A42FD
:1025C0001FD39A4220D8CBB1806803F180410139F2
:1025D00050F8216055F821408900A642084405EBD7
:1025E00001020ED810D3014606E051F8044D52F80E
:1025F000040D844205D807D3013BF6D1184670BCC0
:102600007047012070BC70474FF0FF3070BC7047BE
:102610001046C6E70023D4E74368F0B473B182687C
:1026200003F18044013C52F8245002EB84021DB1B6
:102630001BE052F8044DC4B9013BFAD14A688AB193
:102640008E6802F18044013C56F8243006EB840485
:102650001BB151E054F8045DA5B9013AFAD1002B41
:102660003FD002681046F0BC70474A68002AF8D094
:102670008E6802F18044013C56F8245006EB840435
:10268000002DEAD09A42ECD39A4204D9F0BC0A68F1
:1026900052421046704702680968002A01DD00298D
:1026A00025DB002901DD002A23DBD3B1846803F197
:1026B0008040013854F8207056F820508000AF4216
:1026C000044406EB0001CDD828BF204607D20CE019
:1026D00050F8045D51F8044DA542C3D805D3013B21
:1026E000F6D11A46F0BC104670475242BAE70122B2
:1026F000B8E74FF0FF32B5E70023C5E7436800298C
:10270000F0B481EAE175A5EBE175A7BF01274FF0B1
:10271000FF3101214FF0FF3773B1866803F180422A
:10272000013A56F8224006EB82021CB10AE052F848
:10273000044D3CB9013BFAD1002D08BF00210846E9
:10274000F0BC70470DB1012B03D9F0BC01680846FD
:1027500070470168002901DD7B1C0DD0012F01D1DC
:1027600000290BDB33689D42E9D303D8F0BC00217C
:10277000084670474942E2E70121E0E74FF0FF31A8
:10278000DDE700BF90422DE9F04707460E464BD0EB
:102790008842154620D07368013B0BD0B1689A007F
:1027A00051F823000A4418B134E052F8041D89BBE3
:1027B000013BFAD133684FF004083B6001247A688A
:1027C000A24233D3B8689200002103F079F942465F
:1027D000B168B86803F0FCF86E6801233B6076B11D
:1027E000AA6806F18043013B52F8231002EB8303F1
:1027F00019B107E053F8041D21B9013EFAD10020B8
:10280000BDE8F08742F210739E422FD96FF00F009F
:10281000BDE8F08742F2107231685C1C9442396066
:10282000F4D84FEA8408CAE70D46D5E7404603F0DE
:102830001FFA81460028E9D00021424603F040F902
:10284000B96869B17A684846920003F0C1F87A68BD
:1028500000219200B86803F033F9B86803F058FA21
:102860007C60C7F8089048464246ADE77B68B342B3
:1028700080F081804FEA8608404603F0F9F904466B
:102880000028C3D00021424603F01AF9B96869B1A3
:102890007A682046920003F09BF87A680021920043
:1028A000B86803F00DF9B86803F032FA2046BC604E
:1028B000AD687E600024A646011F51F8042F0EF17A
:1028C000010E22440A602B6813440B6055F804CBB8
:1028D00063452CBF00230123A2422CBF1C465C1C75
:1028E000B645EAD14FEA8E094844002C87D00EF154
:1028F000010542F210780DE009F104060368013584
:102900002344A342B14640F8043B34BF01240024D1
:10291000BFF475AF7B686A1E9342EDD845453FF61C
:1029200075AFAB4204D3B86809F104064844E5E743
:1029300009F10406304603F09BF9824600283FF473
:1029400065AF0021324603F0BBF8B96869B17A6817
:102950005046920003F03CF87A6800219200B86873
:1029600003F0AEF8B86803F0D3F950467D60C7F8BD
:1029700008A04844C2E71546B8689BE72DE9F04334
:102980004B6885B00E460446154683B1B26803F124
:102990008041013952F8210002EB810228B194E014
:1029A00052F8041D002940F09080013BF8D16A687C
:1029B00082B1AF6802F18041013957F8213007EB4D
:1029C00081012BB1BFE051F8040D002840F08B804D
:1029D000013AF8D100230122A54201920293039308
:1029E00000F0D680A64223D07368013B0DD0B168B9
:1029F0009A0051F823000A4428B19AE052F8041DC5
:102A0000002940F09680013BF8D133684FF004086C
:102A1000236001276268BA42C0F09A80A0689200E1
:102A2000002103F04DF84246B168A06802F0D0FFE3
:102A300069680123236071B1AA6801F18043013BF9
:102A400052F8230002EB830318B113E053F8040D8E
:102A500080B90139FAD10025039838B1029A0021D2
:102A6000920003F02DF8039803F052F9284605B0C0
:102A7000BDE8F083A468002520462B46A2F1040E91
:102A800006680135F21A02605EF8047FBA422CBF74
:102A90004FF0000C4FF0010CD21B9E422CBF63463E
:102AA0000CF10103A94240F8042BE9D804EB8101A1
:102AB000002BD0D00A689A42A2EB030341F8043BF2
:102AC00034BF01230023F5D3C5E76A68002A81D00B
:102AD000AF6802F18041013957F8210007EB81010D
:102AE00000283FF475AF93423FF674AF2BD3002B11
:102AF0003FF470AFB26803F18041013952F821E030
:102B000057F821C08900F44502EB010007EB0102F0
:102B1000FFF460AF98BF014608D914E051F8047D76
:102B200052F8040D87423FF655AF0CD3013BF5D167
:102B300050E742F2107231685F1C9742216031D930
:102B40006FF00F0588E76FF0090005B0BDE8F0836E
:102B5000404603F08DF881460028F1D0002142461E
:102B600002F0AEFFA16869B162684846920002F0C7
:102B70002FFF626800219200A06802F0A1FFA06808
:102B800003F0C6F86760C4F808904846424647E735
:102B9000294601A8FFF778F8054600287FF45CAFC6
:102BA00001AD1FE74FEA870834E700BF2DE9F04188
:102BB00013680D68044603FB05F3002B1CDBFFF7CD
:102BC000E1FDB8B92560BDE8F0817A685AB1D7F85F
:102BD00008E002F1804101395EF821000EEB81012D
:102BE00080B39A4238D23A4631462046FFF7C6FEB5
:102BF0000028E7D0BDE8F0814B680E4617467BB150
:102C0000B26803F18041013952F8210002EB8102E0
:102C100020B1DAE752F8041D0029D6D1013BF9D1E1
:102C20007A68002ADFD0D7F808E002F18041013944
:102C30005EF821300EEB810123B12DE051F8040D37
:102C40000028CED1013AF9D13A4631462046FFF765
:102C500095FE0028CED1B5E71ED8002BC3D0B268B0
:102C600003F18041013952F821805EF821C08900CA
:102C7000E04502EB01000EEB0102B4D828BF01468B
:102C800007D209E051F804ED52F8040D8645AAD8A0
:102C900002D3013BF6D1A6E7324639462046FFF77C
:102CA0006DFE0028A6D16D428CE700BF2DE9F041F2
:102CB00013680C68054603FB04F3002B69DD4B68C1
:102CC0000E46174673B1B26803F18041013952F8DC
:102CD000210002EB810218B127E052F8041D21BB4C
:102CE000013BFAD17A687AB1D7F808E002F1804165
:102CF00001395EF821300EEB81011BB10DE051F876
:102D0000040D00BB013AFAD13A4631462846FFF796
:102D100035FE40B92C60BDE8F08132463946284680
:102D2000FFF72CFE88B3BDE8F0817A68002AEBD06B
:102D3000D7F808E002F1804101395EF821000EEB7E
:102D400081010028DED09A42DED3E6D8002BDBD00A
:102D5000B26803F18041013952F821805EF821C048
:102D60008900E04502EB01000EEB0102CCD828BF40
:102D7000014607D2D1E751F804ED52F8040D86451B
:102D8000C2D8CAD3013BF6D1BEE764422C60BDE88D
:102D9000F081FFF7F7FC0028BCD0C4E7F0B5002AAB
:102DA0000F68ACBF01234FF0FF3382EAE274A4EB5B
:102DB000E27407FB03F285B00126002A0296009414
:102DC0000193CDF80CD0064606DB01AAFFF7DAFC2A
:102DD00000B9376005B0F0BD4B680D4673B1AA6805
:102DE00003F18041013952F8210002EB810118B151
:102DF0000EE051F8040D58B9013BFAD184B92946C7
:102E000001AA3046FEF798FF0028E2D005B0F0BDD9
:102E1000002CF4D0012BF2D813689C42EFD3EED9EA
:102E20002A4601A93046FFF7A9FD0028D2D17F42EA
:102E3000CFE700BFF0B5002A0E68ACBF01234FF00A
:102E4000FF3382EAE274A4EBE27406FB03F285B07E
:102E50000127002A029700940193CDF80CD0074671
:102E60002DDD4B680D4673B1AA6803F1804101392D
:102E700052F8210002EB810118B10DE051F8040D68
:102E800050B9013BFAD17CB9294601AA3846FEF770
:102E900053FF88B105B0F0BD002CF5D0012BF3D85D
:102EA00013689C42F0D3EFD92A4601A93846FFF7B0
:102EB00065FD0028EED176423E6005B0F0BD01AA66
:102EC000FFF760FC0028F7D0E4E700BF2DE9F04FE2
:102ED000064687B0002301208E4290460090039062
:102EE000019302930493059318BF0F4600F0C0802E
:102EF000464500F0C5807C687CB1BB6804F1804227
:102F0000013A53F8221003EB820321B16BE053F82E
:102F1000042D002A67D1013CF9D1D8F804500024CF
:102F2000002D00F0B780D8F8083005F18042013A52
:102F300053F8221003EB820319B104E053F8042D77
:102F40000AB9013DFAD142F2107305EB0409994523
:102F500046D8D6F804A0CA454AD3BAF1000F69D0C2
:102F6000B0684FEA8A02002102F0AAFDB26800238D
:102F700001211360316085B1994600E0B268D8F84C
:102F8000083002EB890253F82930B96809F10109C8
:102F90002046FEF76DFAA945F0D13A68D8F800301E
:102FA000002403FB02F33360059838B1049A002132
:102FB000920002F085FD059802F0AAFE0298002119
:102FC000012303930491059130B1019A920002F01C
:102FD00077FD029802F09CFE204607B0BDE8F08F16
:102FE0006FF00F04E0E7D8F80450002D9BD1AAE75A
:102FF0004FEA890A504602F03BFE83460028EFD094
:103000000021524602F05CFDB16869B17268584611
:10301000920002F0DDFC726800219200B06802F0BC
:103020004FFDB06802F074FEC6F80490C6F808B010
:10303000CA4695E7042002F01BFE81460028CFD047
:10304000C0F800A0B16861B17268920002F0C0FCE3
:10305000726851469200B06802F032FDB06802F02A
:1030600057FE0123C6F808904846736004227AE7A9
:103070006846FEF709FE0446002895D16F4637E7FB
:1030800003A83146FEF700FE044600288CD10DF15E
:103090000C0830E7D6F804A02C465EE78B1E0E2BFA
:1030A00000F293812DE9F04F01238BB00C460027ED
:1030B000064610460092894604930597069702F04B
:1030C0004FFD102C82463CD07468002C00F04581E6
:1030D000B068A200002102F0F3FCB26800270123CF
:1030E00017603360BAF1000F7DD098460DF10C0BDC
:1030F000002F00F07081009BDB5DA3F13004E2B291
:10310000092AA3F1410288BFFF24052AA3F1610225
:1031100098BFA3F13704052A98BFA3F15704A1452E
:1031200063D86FF00505069838B1059A0021920022
:1031300002F0C6FC069802F0EBFD28460BB0BDE895
:10314000F08F42F2107385001F356D099D4200F229
:10315000D180D6F80480A845C0F0D280B8F1000F25
:1031600000F01781B0684FEA8802002102F0A8FC45
:10317000B5680021012329603360BAF1000F32D015
:10318000009B03EB0A078B00BAF1010F4FEAD10055
:1031900003F01C030AF1FF3A00F0268117F801ED55
:1031A0000131AEF130025FFA82FCBCF1090FAEF1E1
:1031B000410888BFFF22AEF1610CB8F1050F98BF3E
:1031C000AEF13702BCF1050F98BFAEF15702944241
:1031D00002FA03F3A5D955F82020134345F820300F
:1031E000BAF1000FCFD100259DE704A807AA314608
:1031F000CDF81C80CDF82080CDF824B0CDF80C900F
:10320000FFF764FE054600288DD13268049B012A31
:10321000039440D0002BCDF81C80CDF82080CDF851
:1032200024B03EDD059A72B1069802F18041013961
:1032300050F8215000EB81011DB116E051F8045DFA
:103240009DB9013AFAD1C4B904A907AA304601933D
:10325000FEF772FD054600287FF465AF019B3360E1
:103260000137BA457FF444AFBDE7002CECD0012A0A
:10327000EAD802689442E7D3E6D904AA07A93046FF
:103280000193FFF77BFB054600287FF44CAF019BC1
:103290005B423360E4E7002B07920892CDF824B03C
:1032A00009DB04A907AA30460193FFF76BFA05462C
:1032B0000028D3D037E7059A7AB1069802F1804109
:1032C000013950F8215000EB810125B139E051F866
:1032D000045D002D35D1013AF9D1002CB4D004AAF7
:1032E00007A930460193FFF749FB019B05460028DB
:1032F000CED018E76FF00F0528460BB0BDE8F08F71
:103300004FEA8508404602F0B3FC814600285FD0B2
:103310003946424602F0D4FBB16869B1726848464A
:10332000920002F055FB726839469200B06802F0D4
:10333000C7FBB06802F0ECFC7560C6F80890A846C0
:1033400010E7002C80D0012A3FF67EAF026894423D
:10335000FFF47AAF7FF678AFC1E7042002F088FC73
:103360000546002834D00460B16861B172689200EB
:1033700002F02EFB726821469200B06802F0A0FBBA
:10338000B06802F0C5FC0123B560284673600422D2
:10339000A0E6042002F06CFC0546C8B1C0F800802D
:1033A000B16861B17268920002F012FB7268414626
:1033B0009200B06802F084FBB06802F0A9FC01231F
:1033C000B560284673600422CFE66FF003007047B3
:1033D0006FF00F05A7E6009B1B782D2B7FF48BAEBB
:1033E0004FF0FF3333603BE7009A12782D2A7FF4C9
:1033F000D5AE4FF0FF333360002594E600B585B0BD
:103400000123009201AA01930293CDF80CD0FFF79B
:103410005DFD05B05DF804FB2DE9F04F5C68A3B0DD
:103420009CB1D3F808E004F18047013F88465EF87C
:1034300027109C460EEB870761B93E46254602E001
:1034400056F8043D33B9013DFAD16FF00B0023B0BB
:10345000BDE8F08FDCF80030002BF6D092465368C0
:10346000012210921392169219921C920022C146C8
:103470008346E04611921292149215921792189276
:103480001A921B921D921E9283B1DAF8082003F162
:103490008040013852F8205002EB800225B15EE0F6
:1034A00052F8040D00285AD1013BF9D10B460029EE
:1034B00040F095813A4603E052F8041D002950D1AE
:1034C000013CF9D110A85146FEF7DEFB0746002863
:1034D00070D0129838B1119A0021920002F0F0FADF
:1034E000129802F015FC15980021012310931191F8
:1034F000129130B1149A920002F0E2FA159802F09B
:1035000007FC18980021012313931491159130B1F1
:10351000179A920002F0D4FA189802F0F9FB1B985F
:103520000021012316931791189130B11A9A920035
:1035300002F0C6FA1B9802F0EBFB1E980021012353
:1035400019931A911B9130B11D9A920002F0B8FAAA
:103550001E9802F0DDFB384623B0BDE8F08F00294D
:10356000A8D09C42AED300F23D81002BAAD0DAF85D
:10357000081003F18042013A51F822005EF822401F
:1035800092008442114496449CD398BF0A4608D9BD
:1035900028E152F8040D5EF8041D884292D8C0F06C
:1035A0002181013BF5D110A85146FEF76DFB07467E
:1035B00000288ED113A84146FEF766FB0746002877
:1035C00087D142F21072DAF80440012302349442A7
:1035D0001393109300F24A81179DA542C0F04981D0
:1035E000002D00F065811898AA00002102F068FA09
:1035F0001A9B01221899002093420860169240F20B
:10360000B6811D9B022B40F2A981149D6C1E00F017
:10361000BE811598A20050F82410630151B92346C9
:10362000024404E052F8041D002940F0AE81013B41
:10363000F8D10168202001E010462AB1421E21FA8B
:1036400002F6F607F8D50246134403F01F031F2BBA
:1036500000F09681C3F11F03194610A80393FEF7EB
:103660007FFE074600287FF434AF039913A8FEF7C6
:1036700077FE074600287FF42CAF149D6B1E1A4678
:103680000093119C13A8631E9E1A0193730119469F
:103690000293FEF765FE074600287FF41AAFB600D6
:1036A00008E0189810A9835913AA013383510846DA
:1036B000FFF7FCFA13A910A8FEF7AEFF0028F0DA16
:1036C000029913A8FEF7E0FE9DE80C00934240F239
:1036D000C38104F1804304F100641146023B023CC3
:1036E000A41A9A1A9B00CDF83090994605F18045AE
:1036F000023DA80092000690600114468A000290E4
:1037000004920997CDF82880CDF82CB0CDF834A0DC
:103710000499129A159B09F104055B5850591899A0
:103720009842C0F038814FF0FF330B510F193B68BE
:10373000A9F1040801333B60DDF810A038E0159BC7
:10374000116053F80A10189B51601B5919A90F9367
:1037500001231F9320931FAA0FAB08462193FFF765
:10376000B5FB002840F015821D9E002E00F0DA8087
:103770001E98B200002102F0A3F91E9A00231360E4
:1037800001231C93019B012B129B00F0C98053F86D
:103790000810116053F809001CA950605B5919A862
:1037A0009360FEF739FF002840F3118118990B59F7
:1037B0001A9E013B0B51002E00F096801B98B20020
:1037C000002102F07DF91B9A002300991360012368
:1037D00019930029B3D0159B06995958B0E7002CCE
:1037E0003FF470AEBBF1000F0FD0DBF80440DCB14A
:1037F000DBF80800A200002102F062F9DBF80820E3
:10380000002101231160CBF80030B9F1000F07D07F
:1038100051464846FEF738FA074600287FF459AE6D
:10382000002023B0BDE8F08F042002F021FA054605
:10383000E0B10460DBF8081081B1DBF804209200ED
:1038400002F0C6F8DBF8042021469200DBF80800FD
:1038500002F036F9DBF8080002F05AFA0123CBF83F
:1038600008502846CBF804300422C4E76FF00F0755
:103870002FE6A600304602F0FBF905460028F5D0F9
:103880003946324602F01CF9189969B1179A284650
:10389000920002F09DF8179A39469200189802F0AB
:1038A0000FF9189802F034FA1895179425469AE6FD
:1038B000042002F0DDF904460028D7D005601899ED
:1038C00061B1179A920002F083F8179A2946920084
:1038D000189802F0F5F8189802F01AFA01231894D3
:1038E00020461793042280E6042002F0C1F907461F
:1038F0000028BBD006601B9961B11A9A920002F0B1
:1039000067F81A9A314692001B9802F0D9F81B9872
:1039100002F0FEF901231A931B97384604224FE761
:10392000002136E7042002F0A3F9074600289DD0C5
:1039300006601E9961B11D9A920002F049F81D9A25
:10394000314692001E9802F0BBF81E9802F0E0F992
:1039500001231D931E97384604220BE703211CA860
:10396000FDF79EFF074600287FF4B3AD4DE6022128
:1039700019A8FDF795FF074600287FF4AAAD40E699
:1039800000230094039322467BE65B0152E6159ADE
:10399000234611684EE652F809E00F19002B00F09B
:1039A000FA804FF000084FF0004605E008F10108EA
:1039B000B8F1200F00F09A8013EA06024FEA56068B
:1039C000F4D0C8F10002D617C8F1200290E0189B8D
:1039D0001FAA1B5913A90F9301231F93209319A802
:1039E0000FAB2193FFF772FA002840F0D2800299C2
:1039F00019A8FEF7B5FC002840F0CB8010A919AA41
:103A00000846FFF753F9002840F0C380119A7AB1B5
:103A1000129B02F18041013953F8210003EB81032D
:103A200020B148E053F8041D002944D1013AF9D1EE
:103A3000029A019B203A0292009A013B9342019321
:103A4000A4F10404C1463FF663AEDDF83090DDF822
:103A500034A009AF97E88009BBF1000F0BD016A97D
:103A60005846FEF711F9D8F80030DAF8002003FBC9
:103A700002F3CBF80030B9F1000F3FF42AAD0399FF
:103A800010A8FEF701FDDAF8003010A9484610939F
:103A90000124FEF7F9F800220FAB1FA948460F9248
:103AA0001F9420942193FDF71FFF00287FF411AD90
:103AB000C9F800400DE5109B002BB9DA13A919A82D
:103AC000FEF7E2F8002864D1029919A8FEF748FC35
:103AD00000285ED110A919AA0846FFF767F8002848
:103AE00057D1189A1359013B13518FE74FF0FF3606
:103AF0002EFA02F203FA08F300FA08F03240024309
:103B00001E0CB2FBF6F000FB162C0EFA08F8079319
:103B10001FFA83FE1FFA88F34FEA184A089333040A
:103B20000AEB0C4B00FB0EF8059308E0059BBCF577
:103B3000803F00F1FF30CEEB08089B4405D2B0F582
:103B4000803FB444F2D2D845F0D8079B0AEB02423A
:103B500000FB1323B3FBF6F202FB163A089B02FBB1
:103B60000EF803EB0A4C8B46534608E00599B3F573
:103B7000803F02F1FF32CEEB08088C4405D2B2F54B
:103B8000803F3344F2D2E045F0D8594602EB004280
:103B900003E007469DE44FF0FF323A60C7E500BFFF
:103BA0008B1E0E2B61D8F0B5022985B058D046681F
:103BB000002E5DD08768002507EB860656F8044D79
:103BC000230C43EA0543B3FBF1F501FB1533A4B223
:103BD00044EA0343B3FBF1F5BE4201FB1535EDD1D9
:103BE0000368002B2DDB06460F460120144601908A
:103BF000029001AB3246002130460097CDF80CD040
:103C0000FFF70AFCD8B9736873B1B26803F1804159
:103C1000013952F8210002EB810218B115E052F887
:103C2000041D91B9013BFAD12268092D94BF05F119
:103C3000300305F13703511C21600020137005B0DB
:103C4000F0BD002DCFD04D1BCDE73368002BEBD05E
:103C5000394630462246FFF7A3FF0028E4D0EEE7BE
:103C600083681B6803F00105BDE76FF00300704730
:103C70003546B8E72DE9F0478C1E0E2C84B000F2D3
:103C80004F81D0F804C0BCF1010400F04681876880
:103C9000A60057F824503E442DB116E156F8045DB5
:103CA000002D40F01281013CF8D13D68202601E052
:103CB0003E462FB1771E25FA07FE1EF0010FF7D002
:103CC0000329344403DD6408102908BF64081D6813
:103CD0000334AC4200F22781056800240126013537
:103CE0008DE844000294039400F0FD80654614467C
:103CF0001029984617460646894640F09F80002DB9
:103D000000F0858005F18043013B934A9B004FF012
:103D1000000C20E0BCF1000F21D115F1070F1ED0DF
:103D2000080C10F0FF0E40F00A81A81D00F0D780AB
:103D3000080A10F0FF0E40F00881681D00F0CB80EB
:103D400011F0FF0E40F0F380291D00F0C080013D0E
:103D5000A3F104035BD0B068C158080EDAD001119A
:103D6000515C04F1010ECDF800E02170009900F0E3
:103D70000F00105C4C1C00940870B168009CC9587E
:103D80007548090CC1F3031E01F00F0110F80EE095
:103D900004F1010CCDF800C084F800E0009C415C07
:103DA00004F1010ECDF800E02170B168009CC95803
:103DB000090AC1F3031E01F00F0110F80EE004F12F
:103DC000010CCDF800C084F800E0009C415C04F1D7
:103DD000010ECDF800E02170B168009CC958C1F314
:103DE000031E01F00F0110F80EE004F1010CCDF8F4
:103DF00000C084F800E0009C415C601C0090013D24
:103E00002170009C4FF0010CA3F10403A3D1631CAB
:103E10000020009320700446009BDF1BC8F8007050
:103E2000039838B1029A0021920001F049FE0398EC
:103E300001F06EFF204604B0BDE8F087013D0CD0D4
:103E40008268AB0052F82510134421B151E053F8B9
:103E5000042D002A4DD1013DF9D13368042401938A
:103E60000125204601F004FF8246002852D000219F
:103E7000224601F025FE039969B1029A504692004C
:103E800001F0A6FD029A00219200039801F018FEAD
:103E9000039801F03DFF50460295CDF80CA0224654
:103EA000002101F00DFE2246B168039801F090FD5B
:103EB000019B01332BD049466A4601A8FFF770FEEB
:103EC00004460028ACD1009CA1E76401EEE66146FF
:103ED000E646214887E761461F48E6466DE76146AA
:103EE0001D48E64652E72D24147094194568009445
:103EF000FEE642F21073326801359D42019288BF9E
:103F00006FF00F0496D8C5B92C462846C7E70123A1
:103F10000193D0E76FF00F0482E785682D68C5E64E
:103F20006FF0030087E71C606FF0070083E74FEA3C
:103F30002E1E01F00F01084855E7AC0091E700F094
:103F40000F014FEA2E1E044820E700F00F014FEA50
:103F50002E1E014831E700BFF08E010870B5002B1E
:103F600084B083EAE376A6EBE376B4BF4FF0FF3587
:103F70000125012401AB009601950294CDF80CD0E7
:103F8000FFF74AFA04B070BDF8B55368174683B11D
:103F9000946803F18045013D54F8252004EB850425
:103FA0002AB118E154F8045D002D40F01481013B62
:103FB000F8D10A46064601463B460020FFF72CFA98
:103FC000002840F01981716899B1B06801F180430F
:103FD000013B50F823E000EB8302BEF1000F43D118
:103FE00014460B4603E054F8045D002D3CD1013B20
:103FF000F9D139463046FEF70FFB0028C0F2D480D5
:1040000034683B6803FB04F3002B40F3EB807368D8
:104010007BB1B26803F18041013952F8210002EB13
:10402000810220B181E052F8041D00297DD1013BBD
:10403000F9D17A687AB1BD6802F18041013955F849
:10404000213005EB810123B1BBE051F8040D0028BC
:1040500078D1013AF9D13A4631463046FEF78EFC26
:10406000002800F09980F8BD3468002CC1DA3B6864
:1040700003FB04F3002B08DB3A4631463046FEF7DB
:1040800081FB0028EFD134609DE71346BEF1000F9D
:1040900003D01EE053F8042DDAB90139FAD17B6858
:1040A0007BB1D7F808E003F18042013A5EF8225074
:1040B0000EEB82021DB179E052F8045DBDB9013BFF
:1040C000FAD13A4631463046FEF758FC0028DAD09D
:1040D000F8BD7B68002BF4D0D7F808E003F18042EC
:1040E000013A5EF822500EEB8202002DE7D08B429F
:1040F000E7D35BD80029E4D001F18042013A50F8BF
:1041000022505EF822C09200AC4510440EEB020330
:10411000D7D307D94AE050F8045D53F8042D9542EF
:10412000CFD843D30139F6D1CBE77A68002A92D0B1
:10413000BD6802F18041013955F8210005EB81018C
:10414000002886D09A4286D33BD8002B83D0B06813
:1041500003F18041013950F821C055F821E0890070
:10416000F445084405EB01023FF675AF28BF014650
:1041700008D226E051F8045D52F8040D85423FF65E
:104180006AAF1ED3013BF5D13A4631463046FEF7C1
:10419000F5FB00287FF467AF346039463046FEF700
:1041A0003BFA0028BFF62CAF0020F8BD3246394656
:1041B0003046FEF7E3FB00287FF455AF64423460DD
:1041C00001E7324639463046FEF7D8FB00B1F8BD6C
:1041D000644234600DE73B68002BBFF6EAAE6FF037
:1041E0000900F8BD3A4631463046FEF7CBFA0028C2
:1041F0007FF439AF3460D0E7F8BD00BF002A37D074
:1042000039DB012AF0B4074624D0022A26D04E68B2
:1042100066B38868002300EB860656F8044D250C2B
:1042200045EA0343B3FBF2F502FB1533A4B244EABB
:104230000343B3FBF2F4B04202FB1433EDD109683F
:10424000002903DB3B600020F0BC7047002BF9D055
:10425000D31AF7E700203860F0BC70478B68002065
:104260001B6803F001033B60F0BC70473346E9E78D
:104270006FF00B0070476FF0090070472DE9F04FA9
:1042800095B0546802AFB861601EBC62002800F0AF
:104290009582D2F808E085005EF820604FEA401869
:1042A00066B90446754404E055F8046D002E40F0EC
:1042B000A981013CF8D1A046DEF80060202401E08D
:1042C0002C462DB1651E26FA05FC1CF0010FF7D017
:1042D0004444B4F5806F14D8B4F5287F80F05F8132
:1042E000EF2C00F217824F2C0BD8172C40F25C8277
:1042F00008247C6004243C620224BC6003247C62A9
:1043000007E010247C6008243C620324BC60042481
:104310007C623D6AD3F80480AC464FEA88042646A6
:104320000CFB04F44FEAC80A0AF1080C06F10A056E
:10433000ADEB0C0D25F007050A3424F007040DF150
:10434000080BADEB050D02ADADEB040D02ACFE624A
:10435000FD617C61B8F1000F00F02E82D3F808C037
:10436000341F5CF804506444002D40F044814546FD
:1043700004E054F8046D002E40F03D81013DF8D179
:104380006546D5F8009019F0010F00F03881BC6A3D
:104390008CB104F18046013E5EF826400EEB8606A5
:1043A0002CB940B156F8044D0138002CF9D01068F2
:1043B0000028C0F224810868013000F020811C46EA
:1043C000BB69F9603B613B6FBA62002B00F0528120
:1043D0009B68002B00F04E813B6F186859689A6803
:1043E00007F1300307C3FA6A0021584601F068FB61
:1043F00042F2107365689D4200F2C6803B695B68BB
:10440000AB42C0F09D812146F868FEF705F900280F
:10441000C0F2BB810BEB850001237864F96822466A
:1044200007F13C003D64FB63FFF7AEFD656809F1F1
:1044300002035B0003F008034B4403FB09F6C6F1DB
:10444000020606FB03F303FB09F2C2F1020202FBC0
:1044500003F303FB09F6023E06FB03F6BB6BA16800
:104460002846324600935B46FDF770FA6568F869A6
:104470004FEA850A0BEB0A084146524601F0A8FABA
:10448000BB689BB128464FF000081D4600E06068FD
:1044900008F101085B463246A168FDF70FF9A8450F
:1044A000F5D165684FEA850A0BEB0A08D7F8149036
:1044B000FB6A52469B0841464846FB6001F088FA79
:1044C0003A6A012A23D0FB6A4FF001089944BE6181
:1044D0002846324601E02846BA69FB69A168009384
:1044E0005B46FDF733FA656848464FEA850A0BEBF1
:1044F0000A063146524601F06BFAFB6A08F10108E0
:1045000099443B6A9845E6D133469846BE6952467F
:104510004046B96B01F05CFA28460025AA46A94638
:104520005B463246A168FD62FDF79CFABB6AD3F890
:104530000480B9F1000F24D108F1FF33B8F1000F66
:104540006AD098464FF01F09BB6A9B6853F8283021
:1045500023FA09F313F0010304D1FA6A002AE8D020
:10456000012A52D0796A0AF1010ACAEB010293408A
:10457000514545EA03051BD00223FB62B9F1000F48
:10458000DAD009F1FF39DFE76FF00F053B6F002B41
:1045900000F0C98028464C37BD46BDE8F08F402466
:1045A0007C6020243C620524BC6006247C62B0E66A
:1045B000FD620D464FF0000A0AF1010A5B463246E1
:1045C000A1686068FDF77AF85545F5D13B6AFD6A48
:1045D000A168ED1AFB68606805FB03F57B6932464C
:1045E00003EB850500955B46FDF7B0F90025012337
:1045F000AA46FB629DE71C68002CBFF6C1AE6FF0B7
:104600000300C8E74FEA441858E65B463246A16803
:104610006068FDF753F88CE7BAF1000F1AD0D7F8AD
:10462000049001E0C24515D06D005B463246A1689A
:104630006068FDF743F819EA050F08F10108F1D0A9
:10464000FB69A1686068324600935B46FDF77EF91E
:10465000C245E9D132465B46A1686068FDF702FABF
:1046600062683B69920098680BEB020101F0B0F9B7
:1046700000258BE70123002608FA03FE3146524647
:1046800058463B63FB63C7F844B07E63BE63C7F81C
:1046900040E001F015FAFB6A0BEB0301B8F1000FE3
:1046A00018D03046A5F1040E0A680136131A0B60C3
:1046B0005EF8045FAB422CBF4FF0000C4FF0010CD2
:1046C0005B1B904294BF60460CF10100B04541F87D
:1046D000043BE9D107F13000224607F13C01FFF726
:1046E00053FC054600287FF451AF42F21073666810
:1046F0009E423FF649AF7B6BB34265D33B6F002BC5
:104700003FF476AE07F1300307CB3B6F186059607A
:104710009A606DE620247C6010243C620424BC6016
:1047200005247C62F5E5B86B00283FF433AF7A6B63
:104730001946920001F0C4F9B86B01F0E9FA29E7D3
:104740004FEA8508404601F093FA064600283FF4F8
:104750001BAF4246002101F0B3F93A69916881B17B
:1047600052683046920001F033F9386900214268FE
:104770008068920001F0A4F93B69986801F0C8FADA
:104780003A695560966065683DE6AA000BEB020643
:104790003046002101F094F9F96830464A6889688A
:1047A000920001F015F942E601243C627C62022489
:1047B0007C600024BC60ACE59D68E2E5D2F808E0CE
:1047C0008046DEF8006079E54FEA860A504601F03F
:1047D0004FFA804600283FF4D7AE2946524601F0F2
:1047E0006FF9B96B69B17A6B4046920001F0F0F84D
:1047F0007A6B29469200B86B01F062F9B86B01F050
:1048000087FA7E63C7F8388078E700BF2DE9F04368
:104810004B6887B001240F46013B4FF0000105466D
:1048200016460094039401910291049105910CD0D5
:10483000B9689A0051F823000A4420B17AE052F88E
:10484000041D002976D1013BF9D13B684FF00408E3
:1048500000930124404601F00BFA8146002800F045
:1048600086800021424601F02BF9029969B1019A34
:104870004846920001F0ACF8019A0021920002989B
:1048800001F01EF9029801F043FA48460194CDF870
:1048900008904246002101F013F94246B968029897
:1048A00001F096F8314603A8FDF7EEF90646B0BBD5
:1048B000019C002C00F0028137460298043850F821
:1048C000041F002203E0202A07F1010759D021FA32
:1048D00002F313F0010302F10102F4D0049CBCB115
:1048E0004FF0000E7146059E043E56F8040F00225C
:1048F00003E0202A01F101013DD020FA02F313F078
:10490000010302F10102F4D0B94228BF39460C4636
:1049100068462146FDF7B8FD0646002836D00298C5
:1049200098B1019A0021920001F0CAF8029801F0B2
:10493000EFF90AE042F2107239685C1C944200916F
:1049400088BF6FF00F0640F2BB800598002101235D
:1049500000930191029130B1049A920001F0B0F8F5
:10496000059801F0D5F9304607B0BDE8F08302980C
:104970006FF00F06D4E70EF1010EA645B5D11C4627
:10498000C6E70136A6429AD11F46A7E7214603A8EB
:10499000FDF77AFD06460028C1D101230393009359
:1049A000019E7EB1029F06F18042013A57F8223003
:1049B00007EB8202A3B9334602E052F8041D79B92D
:1049C000013BFAD1214603A8FDF7CAFC06460028A0
:1049D000A5D103A92846FDF757F9064602989FE797
:1049E000009B002BEED04FF0000E7146043F57F8AD
:1049F000040F002203E0202A01F1010140D020FA37
:104A000002F313F0010302F10102F4D06846FDF74E
:104A10003BFD0646002882D1049999B18646064698
:104A20000598043850F8047F002203E0202A06F19C
:104A300001062BD027FA02F313F0010302F1010261
:104A4000F4D0314603A8FDF71FFD064600287FF489
:104A500066AF03A96846FDF7DFFD00281CDB03AA4B
:104A600069466846FDF78AFF064600287FF457AF7F
:104A700001216846FDF708FD0646002890D04EE764
:104A80000EF1010EB645B2D11946BFE70EF1010E87
:104A90008E45C7D11946D5E703A96A460846FDF7F2
:104AA0006DFF064600287FF43AAF012103A8FDF709
:104AB000EBFC064600283FF473AF30E727460DE7CE
:104AC00014B9A0462046E4E64FEA8408C2E600BFD7
:104AD0002DE9F04742F21076CD1CAD08B54218D84A
:104AE00046689946B542904604460F4615D8002EB2
:104AF00034D0A068B200002100F0E2FFA1680025D8
:104B000001230D603A46236048464346BDE8F0471E
:104B100018476FF00F00BDE8F087AE00304601F097
:104B2000A7F882460028F4D00021324600F0C8FFE2
:104B3000A16869B162685046920000F049FF62685E
:104B400000219200A06800F0BBFFA06801F0E0F82F
:104B50002E466560C4F808A0002ECAD1042001F0DA
:104B600087F805460028D4D00660A16861B1626864
:104B7000920000F02DFF626831469200A06800F0BC
:104B80009FFFA06801F0C4F80123A5602846636078
:104B90000422B0E75368002B00F053812DE9F04365
:104BA000946803F1804E0EF1FF3E54F82E50A1B0F0
:104BB00004EB8E041DB109E054F8045D35B9013BE6
:104BC000FAD16FF0030021B0BDE8F0831368002B29
:104BD000F7DD00230124064602A8059408940B94EF
:104BE0000E9402941194149417941A940F46154637
:104BF0000693079309930A930C930D930F931093C5
:104C00000393049312931393159316931893199384
:104C10001B931C93FFF7FAFD0446A0B9039B83B1D5
:104C2000049903F18044013C51F8242001EB8404F1
:104C30002AB186E054F8042D002A40F08280013B1E
:104C4000F8D16FF00D04079838B1069A0021920050
:104C500000F036FF079801F05BF80A980021012365
:104C600005930691079130B1099A920000F028FF50
:104C70000A9801F04DF80D9800210123089309913D
:104C80000A9130B10C9A920000F01AFF0D9801F0D1
:104C90003FF81098002101230B930C910D9130B136
:104CA0000F9A920000F00CFF109801F031F8049870
:104CB000002101230E930F91109130B1039A9200BD
:104CC00000F0FEFE049801F023F813980021012360
:104CD00002930391049130B1129A920000F0F0FE19
:104CE000139801F015F816980021012311931291E1
:104CF000139130B1159A920000F0E2FE169801F07F
:104D000007F819980021012314931591169130B1D9
:104D1000189A920000F0D4FE199800F0F9FF1C9840
:104D20000021012317931891199130B11B9A920019
:104D300000F0C6FE1C9800F0EBFF204621B0BDE855
:104D4000F083012B6FD9029A002A7FF47AAF39469B
:104D500005A82A46FFF718F9044600287FF473AF28
:104D600008A805A9FCF790FF044600287FF46BAF64
:104D700011A82946FCF788FF044600287FF463AF9A
:104D800014A82946FCF780FF044600287FF45BAF97
:104D90000BA80121FDF700F9044600287FF453AF6A
:104DA0000EA8FCF7F9FE044600287FF44CAF17A8C4
:104DB000FCF7F2FE044600287FF445AF1AA8012153
:104DC000FDF7EAF8044600287FF43DAF81464FF036
:104DD000010801AF0A9B1B68D80740F18E80169B23
:104DE00001211B68DB0741D414A8FDF74DFB0446E5
:104DF00000287FF428AF199B1B68D90724D41C9B7B
:104E00001B68DA0720D4012117A8FDF73DFB01211B
:104E1000044600287FF417AF1AA8FDF735FB0446B7
:104E20000028DCD00FE7029A002AFFF60AAF0B68D1
:104E3000012B89D8002B8AD15242002A7FF401AF7E
:104E400085E76FF00300704717A911AA0846FDF720
:104E5000ADFE044600287FF4F6AE1AA905AA08465E
:104E6000FDF724FF04460028CDD0ECE614A908A8DD
:104E7000FDF7D2FB002870DB08A914AA0846FDF74D
:104E800015FF044600287FF4DEAE0BA917AA0846DA
:104E9000FDF70CFF044600287FF4D5AE0EA91AAA30
:104EA0000846FDF703FF044600287FF4CCAE1DA999
:104EB00008A8CDF80490CDF87480CDF878801F97BD
:104EC000FCF712FD002885D180464FF001091DA98D
:104ED00017A8CDF80480CDF87490CDF878901F977E
:104EE000FCF702FD002829DA17A92A460846FDF733
:104EF0005DFE04460028EAD0A5E6012108A8FDF7DA
:104F0000C3FA044600287FF49EAE0D9B1B68DB07A6
:104F10003ED4109B1B68DC073AD401210BA8FDF797
:104F2000B3FA044600287FF48EAE01210EA8FDF7E7
:104F3000ABFA044600283FF44DAF84E6294617A893
:104F4000FDF76AFB002835DB17A92A460846FDF75E
:104F5000ADFE04460028F1D075E614A908AA08465B
:104F6000FDF7A4FE044600287FF46DAE17A90BAA36
:104F70000846FDF79BFE044600287FF464AE1AA99C
:104F80000EAA0846FDF792FE044600288FD05AE686
:104F90000BA911AA0846FDF709FE044600287FF474
:104FA00052AE0EA905AA0846FDF780FE0446002869
:104FB000B3D048E617A93046FCF766FE044642E641
:104FC000F8B5102204460D4608460C49A04707468E
:104FD00070B90A4E03E004312846A04750B97368FF
:104FE00004220649002BF6D08B6843F001038B6046
:104FF0003846F8BD07463846F8BD00BF401B0020C4
:10500000B1F5806F40F05A822DE9F04F98460023A9
:105010001A46A1B001211E2A824609930A930C93D5
:105020000D931C4608910B9145D90A9892000021D6
:1050300000F046FD0A9901230C607A222A98089311
:10504000C047002840F03D820A98099B0168826FA2
:1050500041F00101C2F30E02016082677BB103F1EE
:105060008042013A50F8221000EB820229B192E10D
:1050700052F8041D002940F08E81013BF8D18B4A83
:1050800008A90BA8FFF7C2FB002840F01A820C9B6E
:1050900073B10D9803F18042013A50F8221000EBF1
:1050A000820219B128E052F8041D29BB013BFAD154
:1050B000099A1E2AB9D87C2000F0DAFD054600289E
:1050C00000F07E8100217C2200F0FAFC0A9969B18F
:1050D000099A2846920000F07BFC099A0021920070
:1050E0000A9800F0EDFC0A9800F012FE1F230A95C2
:1050F000284609937C229AE7012B40F23C810B9AC7
:10510000002AD5D1DAF80400012840F27781DAF8D4
:10511000083082001846002100F0D2FCDAF80810AE
:10512000002201230A602A98CAF800300622C047EC
:105130008346002840F0468152465D495046FDF7BF
:105140001DFC8346002840F03D81584A5146504698
:10515000FDF7BCFE8346002840F0348108AA514682
:105160005046FDF70FFB8346002840F02B81DAF80C
:1051700004001F28C8D9DAF808108B6F13F0404FCD
:10518000C2D001EB80042246034601E0013BBBD0C4
:1051900052F8045D002DF9D0DAF800300293002BAC
:1051A000B2D02246034601E0013B06D052F8045D2E
:1051B000002DF9D0012B00F05B812246034652F806
:1051C000045D002D40F04781013BF8D1002301220E
:1051D000384D0E921192149217921A92CAF800202A
:1051E0000F93109312931393159316931893199387
:1051F0001B931C9361262246034602E0013B00F00C
:10520000E18052F8047D002FF8D0012B00F01B81C3
:10521000012E3FF479AF022E00F0198127460023BA
:1052200057F8042D4FEA124E4EEA0343B3FBF6FE45
:1052300006FB1E3392B242EA0343B3FBF6F28F42FF
:1052400006FB1233ECD1002B3FF45EAF55F8046F30
:10525000002ED0DC01236FF0030207931D931E93F1
:1052600007AB1F93521A02E0013800F0178115199D
:1052700054F8043D002BF7D0012800F005811DAB48
:105280000EAD1A46284651460493FCF755FD834659
:1052900038BB01230E930F9FDFB100242146109EDF
:1052A000043E56F8040F00220BE000BF8865010899
:1052B0007C65010894650108202A01F1010100F0D4
:1052C000E78120FA02F313F0010302F10102F3D0A7
:1052D0000F4611A82946FCF7D7FC8346002800F0AA
:1052E000F280029B1098CAF8003038B10F9A002162
:1052F000920000F0E5FB109800F00AFD13980021E1
:1053000001230E930F91109130B1129A920000F088
:10531000D7FB139800F0FCFC169800210123119391
:105320001291139130B1159A920000F0C9FB1698B2
:1053300000F0EEFC199800210123149315911691A9
:1053400030B1189A920000F0BBFB199800F0E0FC15
:105350001C980021012317931891199130B11B9AC1
:10536000920000F0ADFB1C9800F0D2FC1BF10E0F78
:105370003FF4C8AE26E00B9A002AFFF699AE036808
:10538000012B3FF6BDAE002B7FF4BCAE5242002A8B
:105390007FF48EAEB6E61F2B3FF679AE7FF46FAE8C
:1053A000C14A00F17C0302E083423FF470AE53F83F
:1053B000045D52F8041D8D423FF669AEF4D25EE6FC
:1053C0006FF00F0B0A9838B1099A0021920000F093
:1053D00077FB0A9800F09CFC0D98002101220892AE
:1053E00009910A9130B10C9A920000F069FB0D9876
:1053F00000F08EFC584621B0BDE8F08F082000F088
:1054000037FC04460028DBD0002505604560DAF84B
:10541000081081B1DAF80420920000F0D9FADAF825
:10542000042029469200DAF8080000F049FBDAF877
:10543000080000F06DFC0222CAF80420CAF80840F7
:105440002346082266E60B689E42BBD2E0E60B6864
:1054500003F00103F7E6012B7FF4B8AE029B002BAB
:10546000FFF6B4AE0B68022B3FF6B0AEAAD0ADE6A5
:10547000029B002BFFF6A1AE0B68012B3FF69DAE01
:10548000002B7FF441AE98E620AB2B444A5953F8E9
:10549000643C9A423FF6F3AEBFF4F1AE1DAB0EADE5
:1054A0001946284652460493FDF768FA83460028B9
:1054B0007FF417AF4FF0FF330E93ECE66FF003006D
:1054C000704783467EE7394611A8FCF7DDFF834627
:1054D00000287FF406AFDAF80440013C00F0E080D9
:1054E000DAF80810A20051F824300A442BB1D5E0B4
:1054F00052F8043D002B40F0D180013CF8D10B68FC
:10550000202201E00A4621B1511E23FA01F0C6070C
:10551000F8D5159E1444002E00F0D7801698B200DE
:10552000002100F0CDFA169A022101231160149394
:1055300014A91AAB0093084653462A46FEF79EFE6E
:10554000834600287FF4CDAE159A002A00F0BA8079
:10555000169902F18043013B51F8230001EB8303CC
:1055600030B9013A00F0AE8053F8040D0028F8D0AD
:10557000012A00F2CF81149B002BC0F2A3800A689D
:10558000012A00F29C80002A00F0988040F2135318
:105590009C4200F2BC8140F251339C4200F2B48143
:1055A00040F289239C4200F2AC81B4F5AF7F80F0D9
:1055B000A581F92C00F29F81962C34BF4FF01B0976
:1055C0004FF012090023394E0393DAF804304FEA02
:1055D000830B42F210734FEA9B01994200F259810A
:1055E000189CA14200F24C81002C00F08C8019988C
:1055F000A200002100F064FA199C002204EB0B0CBD
:105600000123A4452260179329D92046CDF814C060
:10561000F36831689B46264B4FF0000C03FB01F109
:10562000B368DFF894E01A46224B8E44E3FB02BCD9
:105630005A46D6F804B0059B8BEA4B1B8BEADB116C
:1056400081EA81510EEB020B8B44C6F80CC0B260AC
:10565000C6F800E0716040F804BB8342D8D817A8B0
:105660002946FCF7D9FF0028C0F2A280189B013B15
:105670000BD054F823109A00224421B162E052F872
:10568000041D00295ED1013BF9D1216801235BE0B3
:105690000134BC427FF405AE1F461AE664012FE7D1
:1056A000DAF808301B682BE77C650108401B0020F6
:1056B0007D50BF124928FAFF87D612005B42002BAB
:1056C0003FF464AF6FF00D0B0BE6042000F0D0FA4E
:1056D000814600283FF42CAF0660169961B1159AF7
:1056E000920000F075F9159A31469200169800F074
:1056F000E7F9169800F00CFB0123CDF858904846C6
:10570000159304220CE7042000F0B2FA03460028A7
:1057100000F0BF800460199971B1189A0590920049
:1057200000F056F9189A21469200199800F0C8F92D
:10573000199800F0EDFA059B01221892199318466A
:10574000042256E75B010133202201E022462CB1FE
:10575000541E21FA04F0C007F8D514460F9A013AF6
:1057600000F09C80DDF840E091005EF8220071447A
:1057700028B191E051F8040D002840F08D80013AE5
:10578000F8D1DEF80000202101E0714631B101F1CD
:10579000FF3E20FA0EFC1CF0010FF6D023449A1AAB
:1057A000511A17A8FCF770FE044600286DD1199C09
:1057B00022681AA942F003022260009117A95346F9
:1057C00011AA0846FEF75AFD044600285DD1294675
:1057D00017A8FCF721FF00286CD0189A7AB1199904
:1057E00002F18043013B51F8230001EB830320B118
:1057F00057E053F8040D002853D1013AF9D1012F95
:1058000088BF4FF0010B28D9294617A8FCF704FFE1
:1058100050B317AA114614A8FDF758FB002850D121
:10582000524614A917A8FEF7AFFB002849D1189AD1
:105830007AB1199902F18043013B51F8230001EB41
:10584000830320B145E053F8040D002841D1013A0B
:10585000F9D10BF1010B5F45D6D1294617A8FCF70A
:10586000DBFE00287FF42EAF012307AA17A80499B6
:105870001F9207931D931E93FCF736F8D0B921E7CA
:1058800017A8FCF70DF8044608B1A34629E5189CB3
:10589000AAE66FF00F0B24E5520174E7109908682F
:1058A00071E7012A13D8179B002BA8DB0A68012A8D
:1058B0000AD842B1039B01334B4503937FF485AE75
:1058C000E3E783460DE55B42002BF3D097E7179B98
:1058D000FAE7012A03D9179B002BBAD1BDE7179B22
:1058E000002BB6DB0A68012AF6D8002AB5D15B4244
:1058F000002BAED1B1E74FF00C0963E64FF0080979
:1059000060E64FF004095DE64FF003095AE64FF0F8
:10591000020957E6149BD2E60000000000000000D8
:10592000D0400B1CD1409C46203AD34018435242F1
:1059300063469340184370470000000000000000D9
:105940009140031C90409C46203A93401943524298
:105950006346D34019437047000000000000000078
:10596000032A70B426D940EA01039B0711D00478BA
:105970000D78AC4222D10244431C05E013F8014BE0
:1059800011F8015FAC4219D19342F7D1002070BCED
:1059900070470C4603461E6825681846AE422146ED
:1059A00003F1040304F10404E1D1043A032A184684
:1059B0002146F0D8002ADAD11046E8E7601B70BC17
:1059C000704700BF00000000000000000000000061
:1059D000844641EA000313F0030349D1403A23D33C
:1059E0000B6803604B6843608B688360CB68C3605F
:1059F0000B6903614B6943618B698361CB69C36147
:105A00000B6A03624B6A43628B6A8362CB6AC3622E
:105A10000B6B03634B6B43638B6B8363CB6BC36316
:105A200040304031403ADBD230320BD30B68036058
:105A30004B6843608B688360CB68C3601030103163
:105A4000103AF3D20C3205D351F8043B40F8043B32
:105A5000043AF9D2043208D0D2071CBF11F8013B36
:105A600000F8013B01D30B8803806046704700BFFC
:105A7000082A13D38B07B1D010F00303AED0C3F1C3
:105A80000403D21ADB071CBF11F8013B00F8013BED
:105A9000A4D331F8023B20F8023B9FE7043AD9D364
:105AA000013A11F8013B00F8013BF9D20B78037081
:105AB0004B7843708B78837060467047000000001D
:105AC00070B4840746D0541E002A41D0CDB203469C
:105AD00002E0621EE4B3144603F8015B9A07F8D1B2
